:100000000080022049150000AD1500006D130000AE
:10001000AD150000AD150000AD150000000000009A
:10002000000000000000000000000000AD1500000E
:10003000AD15000000000000AD150000CD0B000064
:10004000AD150000AD150000AD150000AD150000A8
:10005000AD15000000000000AD150000AD1500005A
:10006000AD150000AD150000AD150000AD15000088
:10007000AD150000AD150000AD150000AD15000078
:10008000AD150000AD150000AD150000AD15000068
:10009000AD150000AD150000AD150000AD15000058
:1000A000AD150000AD150000AD150000AD15000048
:1000B000AD150000AD150000AD150000AD15000038
:1000C000AD150000AD150000AD150000AD15000028
:1000D000AD150000AD150000AD150000AD15000018
:1000E0002D0B0000AD150000AD150000AD15000092
:1000F000AD15000000000000AD150000AD150000BA
:10010000AD150000AD150000AD150000AD150000E7
:10011000AD150000AD150000AD150000AD150000D7
:10012000AD150000AD150000AD150000AD150000C7
:10013000AD15000000000000AD150000000000003B
:10014000AD150000AD150000AD150000AD150000A7
:10015000AD15000000000000AD150000AD15000059
:10016000AD150000AD150000AD150000AD15000087
:10017000AD150000AD150000AD150000AD15000077
:10018000AD150000AD150000AD1500000000000029
:10019000AD150000AD150000AD150000AD15000057
:1001A000AD150000AD150000AD1500000000000009
:1001B000AD150000AD1500000000000000000000BB
:1001C000000000000000000000000000000000002F
:1001D00000000000AD150000AD150000AD150000D9
:1001E000AD150000AD150000AD150000AD15000007
:1001F000AD15000010B5054C237833B9044B13B18D
:100200000448AFF300800123237010BD08020020D2
:1002100000000000B05300000C4B43B10C480D49E6
:1002200010B5AFF300800C48036823B910BD0A482D
:10023000036833B97047094B002BF7D0BDE8104075
:100240001847064B002BF5D0184700BF00000000F0
:10025000B05300000C020020040200200000000047
:10026000154B002B08BF134B9D46A3F5803A002188
:100270008B460F461348144A121A01F064FE0F4BC6
:10028000002B00D098470E4B002B00D09847002041
:10029000002104000D000D48002802D00C48AFF3E7
:1002A000008001F021FE2000290000F00BFD01F08C
:1002B00007FE00BF000008000080022000000000D0
:1002C0000000000008020020100A002000000000CA
:1002D0000000000008B5037802330370014800F005
:1002E00009FE08BDC44E000070B586B005462D4B12
:1002F0005B78002B37D12B4BDB78002B3AD02A4B85
:100300002A4A92E8030018609980264B9B78002BBC
:1003100039D1244B1B79002B3CD1254A254B07CAE8
:1003200003C323F8022B120C1A70234B5E689868E3
:10033000224C01F009FBCDE904011E4B03931C4B39
:100340000293304601F000FBCDE90001164A1C493A
:10035000204602F0E9FA2B7801332B70204600F09A
:10036000C9FD06B070BD104B164A92E80300186034
:100370009980CAE70E4A0C4B07CA03C323F8022B25
:10038000120C1A70C1E70B4B0E4A92E8030018607A
:100390009980CAE7074B054A92E8030018609980E4
:1003A000C3E700BFEC09002044020020944C000089
:1003B0009C4C000034020020B8090020E402002018
:1003C000A84C00008C4C000070B586B00546174B59
:1003D0005B791BBB164A174B07CA03C323F8022BD2
:1003E000120C1A70144B1E69D868144C01F0ACFA48
:1003F000CDE904010E4B0293304601F0A5FACDE998
:1004000000010C4A0E49204602F08EFA2B78013387
:100410002B70204600F06EFD06B070BD054B094AFA
:1004200092E8030018609980DCE700BFEC09002027
:100430009C4C000024020020B80900206403002026
:10044000D44C00008C4C00002DE9F04182B00546F0
:100450000E4B9869D3F8008001F076FA06460F46F5
:100460000B4C404601F070FACDE9000132463B46A4
:100470000849204602F058FA2B7801332B702046A9
:1004800000F038FD02B0BDE8F08100BFB8090020DF
:10049000E4030020044D000030B583B00546154B41
:1004A000D3ED077AF5EEC07AF1EE10FA1ADD124AB2
:1004B000124B1B6813801B0C93700E4BD86901F014
:1004C00043FA0F4C0C4B009302460B460D49204655
:1004D00002F02AFA2B7801332B70204600F00AFD37
:1004E00003B030BD044A084B1B6813801B0C93708B
:1004F000E3E700BFB8090020640800202C4D00008D
:1005000064040020344D0000304D0000F0B589B087
:1005100005462D4BDB79002B38D12B4B9B79002BDB
:100520003BD02A4B2A4A92E8030018609980264B58
:100530005B7A002B3AD1244B1B7A002B3DD1254A04
:10054000254B07CA03C323F8022B120C1A70234B46
:10055000DF6A186B224C1F4E069601F0F5F9CDE9C3
:1005600004011D4B03930296384601F0EDF9CDE9E5
:100570000001164A1B49204602F0D6F92B780133B8
:100580002B70204600F0B6FC09B0F0BD0F4B164AA8
:1005900092E8030018609980C9E70E4A0B4B07CA1E
:1005A00003C323F8022B120C1A70C0E70A4B0E4A41
:1005B00092E8030018609980C9E7074B044A92E863
:1005C000030018609980C2E7EC090020740800203D
:1005D0005C4D00009C4C000054020020B809002033
:1005E000E4040020644D00008C4C0000F8B5054682
:1005F000544B554C0FCB07C42380544BDB7ADBB2F2
:10060000012B36D0514BDB7ADBB2022B3CD04F4B67
:10061000DB7A002B55D04C4E304602F0A9F9074644
:1006200034184B4B07CBF0516160A2601A889B785D
:10063000A281A373454B9B7ADBB2012B4DD0434B78
:100640009B7ADBB2022B53D0404B9B7A002B6CD0B1
:100650003D4C204602F08CF922183E4B19889B78BD
:10066000215293702B7801332B70204600F042FC0E
:10067000F8BD0C3C204602F07BF902462618364BAA
:1006800003CBA0507160C6E72F4C204602F070F9F2
:1006900007462618314B07CBE0517160B2601A88CB
:1006A0009B78B281B373204602F062F906462218A5
:1006B0002B4B03CBA051516019889B781181937209
:1006C000A9E7214C204602F053F902462118254B98
:1006D0001868A0509B888B809DE73446304602F016
:1006E00047F9024606441C4B03CBA0507160AFE7AC
:1006F000154C204602F03CF907462618174B07CB4D
:10070000E0517160B2601A889B78B281B373204661
:1007100002F02EF906462218114B03CBA05151606E
:1007200019889B781181937292E7074C204602F05A
:100730001FF9024621180B4B1868A0509B888B802C
:1007400086E700BF9C4D000064050020EC090020F6
:10075000CC4D0000C04E0000AC4D0000B44D000078
:100760009C4C0000C44D000070B50546474A484BFC
:1007700007CA03C323F8022B120C1A70454B1B7ACD
:10078000002B52D0424C204602F0F2F806462218C6
:10079000414B03CBA05151601B781372204602F0ED
:1007A000E7F8064622183D4B03CBA051516019884B
:1007B0009B7811819372364C204602F0D9F8064698
:1007C0002218374B03CBA051516019889B781181B7
:1007D0009372344B5B7B002B3FD12D4C204602F0B3
:1007E000C7F802462618304B03CBA0507160204654
:1007F00002F0BEF806462218284B03CBA0515160E8
:1008000019889B7811819372214C204602F0B0F830
:100810002218264B19889B78215293702B7801332C
:100820002B70204600F066FB70BD194C204602F08C
:100830009FF8024626181C4B03CBA050716020463F
:1008400002F096F806462218144B03CBA0515160D3
:1008500019889B7811819372ADE7204602F088F8E1
:10086000064622180C4B03CBA05151601B78137223
:10087000204602F07DF806462218084B03CBA05113
:10088000516019889B7811819372BDE7DC4D00009F
:10089000E4050020A4090020E84D00009C4C000065
:1008A000FC4D0000EC090020F44D0000C04E00009B
:1008B00038B50546084B586801F046F8074C024623
:1008C0000B460749204602F02FF82B7801332B7096
:1008D000204600F00FFB38BDA4090020640600206C
:1008E000084E0000F8B507460A4E34460A4D0FCDB3
:1008F0000FC40FCD0FC495E8070003C424F8022BE2
:10090000120C22703B7801333B70304600F0F2FA53
:10091000F8BD00BFE4070020984E000070B592B00B
:10092000054614460E4609B9002A37D0234A0EABB5
:1009300007CA03C323F8022B120C1A70204B1B7832
:10094000002B31D01F4B1B68ADF828301B0C8DF8E5
:100950002A300EB9012C2AD0184A06AB07CA03C3A5
:1009600023F8022B120C1A70154B9868164C174E70
:10097000049600F0E9FFCDE9020106AB0193009671
:100980000AAB0EAA1249204601F0CEFF2B780133A4
:100990002B70204600F0AEFA12B070BD0EAB0D4ABF
:1009A00007CA83E80700C9E70B4B0A93D1E706ABF8
:1009B000084A07CA83E80700D6E700BF2C4E0000AC
:1009C000FC090020384E0000E40600209C4C00008A
:1009D0003C4E0000204E00004F464600F0B591B05E
:1009E00005460C461646012930D0204A08AB07CAF6
:1009F00003C323F8022B120C1A70012C2ED01B4AB1
:100A00000CAB07CA03C323F8022B120C1A70184B45
:100A10005F68D868174C184E069600F095FFCDE930
:100A200004010CAB03930296384600F08DFFCDE92C
:100A3000000108AA1149204601F076FF2B78013306
:100A40002B70204600F056FA11B0F0BD002ACCD130
:100A500008AB0B4A07CA83E80700CEE7012ECED1C8
:100A60000CAB074A07CA83E80700D0E72C4E00000A
:100A7000FC090020640700209C4C0000684E000028
:100A8000204E00000000000030B583B0002502AC0D
:100A900004F8015D2046FFF71DFC2046FFF724FC0B
:100AA0002046FFF791FC2046FFF7CEFC2046FFF7DB
:100AB000F3FC2046FFF72AFD2046FFF797FD20466E
:100AC000FFF752FE2046FFF7F3FE2046FFF70AFF2E
:100AD0002A4629462046FFF721FF2A462946204676
:100AE000FFF77CFF0E4C9DF807200E49204601F0D1
:100AF0001BFF204600F0FEF90B4C606800F024FF5D
:100B000005A3D3E9002300F0C1FD01F083F9606083
:100B100003B030BDAFF3008052B81E85EB51E03F0B
:100B200064020020844C0000B809002000B583B0A6
:100B3000214BD3F81C3413F0020F1DD01E4BD3F8F9
:100B4000243413F4806F0ED04FF480621A4BC3F834
:100B50002424684600F00CFAB8B902AB13E903008C
:100B600000F0ACF911E0154801F0D6FE124BD3F8B5
:100B70002424C3F8242408E013F0010F08D113F44F
:100B8000407F14D10E4801F0C7FE03B05DF804FBAE
:100B90000C4801F0C1FE084BD3F8203413F0040FC9
:100BA000F3D0054BD3F82024C3F82024EDE7064802
:100BB00001F0B2FEE9E700BF00800040F84E0000FF
:100BC0004C4F0000184F0000344F000008B50C498E
:100BD000D1E90023013243F10003C1E9002300F011
:100BE000EDF8084B1B8833B94FF4FA72054B1A80A5
:100BF0000122054B1A70034A1388013B138008BD7C
:100C000088080020860800208408002008B54FF0DE
:100C100080435922C3F800211622C3F800218822FC
:100C2000C3F80021D3F80031002BF0D002F14022AC
:100C3000B832136823F0F0031360012000F0BAF912
:100C4000012000F0C7F91D4800F0DAFA1C4B112210
:100C50005A639A6842F004029A609A6842F48032B9
:100C60009A609A6842F400329A605A6842F002022E
:100C70005A605A6922F4E0625A615A6922F040725D
:100C80005A615A6922F040625A6100F091FC4FF0BB
:100C90008043DA6B22F47F02DA63DA6B42F4CC022F
:100CA000DA631A6B22F47F421A631A6B42F4084229
:100CB0001A630022C3F8002108BD00BF00B0710B09
:100CC0000002004008B5FFF7A1FF2D4B1B682D4A1D
:100CD000A2FB03239B09013BB3F1807F09D22A4A7F
:100CE0005360F021294B83F82310002393600723DE
:100CF00013604FF4E131264800F078FB4FF4E12116
:100D0000244800F073FB00F099F8012207212248E3
:100D100000F0B4FA00224FF40041204800F0AEFA8F
:100D200000224FF400611E4800F0A8FA1D4801F0AF
:100D3000F3FD4FF47A7000F069F81B4801F0ECFD08
:100D40004FF47A7000F062F8184800F0D3F84FF4CE
:100D50007A7000F05BF8164800F0CCF8154800F007
:100D6000C9F84FF47A7000F051F8134B1B78002B40
:100D7000FBD00022104B1A70FFF786FEF5E700BF8C
:100D800008000020D34D621010E000E000ED00E00C
:100D90000000074000100740C04100408041004073
:100DA00040410040604F00006C4F0000844F000045
:100DB000A04F0000C84F000084080020104B1968A5
:100DC000503B1A6842EA4101A3F2AC739A6822F0E0
:100DD00006029A609A6842EA41029A60094B1B88AF
:100DE00043B94FF47A72074B1A80074A136883F0AD
:100DF00001031360034A1388013B1380704700BF4F
:100E0000BC49004094090020C04900404DF804BD91
:100E1000094BD3E9002312EB000B43F1000C5846B9
:100E20006146054BD3E90023994208BF9042F8D2AE
:100E30005DF804BB704700BF8808002010B51B4C4C
:100E40004FF48063C4F80034D4F8883423F4FE03EC
:100E500043F4C023C4F8883440F60443C4F8A030F7
:100E6000D4F8A03023F003031B041B0C43F4081335
:100E700043F00103C4F8A0300D4BC4F8A8300D4A6C
:100E8000C4F8A4205A6842F480425A600A20FFF74E
:100E9000BDFF00220A21204600F00AFA064B4FF45B
:100EA00080725A60502283F8282310BD00800040D1
:100EB00000100740F44F000000E100E082B002ABF8
:100EC00003E903000A49009BC1F8A430D1F8A0301F
:100ED00023F003031B041B0CBDF8042092B2013A5B
:100EE00043EA024343F00103C1F8A03002B0704767
:100EF0000080004010B582B0009001F039FD80B252
:100F0000ADF80400174BD3F8A03013F0030F19D03D
:100F1000154A92F80031013303F01F0392F80121C2
:100F2000D2B2934215D0104C94F8002104EBC202C7
:100F300002A911E9030082E8030084F800310020CF
:100F400002B010BD02AB13E90300FFF7B7FF0020AA
:100F5000F6E7064801F06CFC6420FFF757FF0C2011
:100F6000EEE700BF0080004090080020185000000D
:100F70000F4B93F80021D2B293F80131DBB29A42C1
:100F800014D010B404460A4A92F80131013303F038
:100F90001F0392F8011102EBC10103C984E80300A9
:100FA00082F8013100205DF8044B70470220704741
:100FB00090080020024A136818431060704700BF71
:100FC00000020040024A136C43F4803313647047FC
:100FD00000020040074B084A126D30EA020204D0BA
:100FE0005A1E002B03DD1346F5E701207047002051
:100FF000704700BF80F5200000020040F8B50646AB
:101000000F46104C256D05F01005236843F00403CE
:1010100023601020FFF7DEFF236943F007032361FD
:10102000216A21F00F0139432162206920F0070075
:101030003043206100F0BCFA1DB9236823F004039B
:101040002360F8BD0002004082B0124B1B68019380
:10105000114B1B6C13F4A02F19D113F4003F02D0D5
:101060000E4802B07047C3F3813202A90A4412F855
:10107000042CC3F30800811CC3F34423084800FB7D
:1010800001F003FB0223B0FBF3F0C000E9E700200E
:10109000E7E700BF4050000000020040001BB7001F
:1010A000C0C62D002DE9F84F04468A46FFF78AFF97
:1010B000E4B94C4A136843F0010313600120FFF7C1
:1010C00089FF4FF0000E484B5344484A934263D97E
:1010D000002C40F0828044F21E22424B1A6404200D
:1010E000FFF778FFFFF7B0FFBDE8F88F3D4A1368C0
:1010F00043F0040313601020FFF76CFF4FF4002E41
:10110000E1E74FEA8A0C44E04FEA4A0C41E0CB1A8F
:1011100012E0013240F201239A4219D8C0F35D0374
:1011200003FB02F330491944314DA942F1D84FEA8B
:101130009C018B42EBD95B1A9F42EAD923B14C4602
:10114000464693461F46E4E74C46464693461F46AE
:1011500008F10108B8F1200F0CD85FB12548B0FBA9
:10116000F8F0A0F57413A3F51063234A9342EFD867
:101170000222CFE709F10109B9F1040F15D8A7B18F
:10118000B9F1030FF6D0B9F1040FBAD0B9F1020FDB
:10119000BAD04FF00208DDE7D44600242646A34625
:1011A0004FF0FF374FF00109E6E7631E4EEA833345
:1011B000721E43EA4223ABF102021343094A13644D
:1011C0000420FFF707FF04FB06F40A48B0FBF4F025
:1011D00000FB0BF04000BDE8F88F084A014B1A6491
:1011E0007DE700BF00020040800F05FD8074D21A29
:1011F000C0687804001BB70000093D001E420800CB
:1012000070B506461B4B1D6D05F010051A4B984234
:1012100000D91E46174C236843F0040323601020B6
:10122000FFF7D8FE236943F007032361236A23F005
:101230000F032362236813F0010F10D03146002002
:10124000FFF730FF044600210220FFF7D7FE25B943
:10125000084A136823F004031360204670BD31462A
:101260004FF40020FFF71EFF0446024B1D6D05F0F2
:101270001005E8E70002004000B0710B00230F2BBF
:1012800015D870B402E001330F2B0ED801249C4016
:101290008C43F8D104685D000326AE4024EA0604BE
:1012A00002FA05F52C430460EDE770BC7047704707
:1012B000012A0CD012B1022A0FD07047D0F818348E
:1012C000012202FA01F11943C0F81814704709010C
:1012D000435823F0800343507047D0F8383401223C
:1012E00002FA01F11943C0F83814704710B50446EA
:1012F0000168104801F09CFA61680F4801F098FA03
:10130000A1680E4801F094FAE1680D4801F090FAE6
:1013100021690C4801F08CFA61690B4801F088FAE8
:10132000A1690A4801F084FAE169094801F080FAEC
:1013300010BD00BF7C500000885000009450000099
:10134000A0500000AC500000B8500000C450000095
:10135000D050000008B50446034801F0DDFA2046ED
:10136000FFF7C4FFFEE700BF64500000074B0420F6
:101370007146084204D0EFF309807146FFF7EABFD7
:10138000EFF30880FFF7E6BFFEE700BF551300004C
:1013900030B4134605E091F900500D4B1D60234613
:1013A00001315C1E8BB10A4B9B6913F4000FFAD11B
:1013B00091F900300A2BEED10D25054B1D60044B31
:1013C0009B6913F4000FFAD1E5E7104630BC704773
:1013D00000000740044B9B6913F4804FFAD1024B85
:1013E0001B680B700120704700000740F0B585B006
:1013F00004460E463C4B0FCB04AD05E90F003B4BBA
:101400009C4232D03A4B9C4237D03A4B9C423CD023
:10141000394B9C4241D0394B9C4246D0384B9C4280
:101420004BD000273D46002323630323E360A368DA
:1014300023F4702323F0F003A360012D44D096B170
:1014400004AB03EB850555F8102C0137B2FBF7F21E
:1014500002EB5603B3FBF6F3023BB3F5803F3BD2FE
:1014600043F04053636205B0F0BD264B5D69C5F3A0
:1014700001651F6AC7F30327D5E7224B5D69C5F3F2
:1014800081651F6AC7F30337CDE71E4BDD69C5F3DE
:1014900001651F6B07F00F07C5E71A4BDD69C5F340
:1014A00081651F6BC7F30317BDE7164BDD69C5F3F5
:1014B00001751F6BC7F30327B5E7124BDD69AD0F4D
:1014C0001F6BC7F30337AEE7FFF7BEFD04AB03EBBB
:1014D000850343F8100CB2E702EBC602B2FBF6F646
:1014E0003609023E6662BEE7DC500000000007409D
:1014F0000010074000200740003007400040074030
:10150000005007400002004008B500F0D3FC58230B
:1015100003604FF0FF3008BD08B500F0CBFC582346
:1015200003604FF0FF3008BD08B500F0C3FC58233E
:101530000360002008BD08B500F0BCFC5823036020
:101540004FF0FF3008BD00001249134A134B9A4276
:10155000BEBF51F8040B42F8040BF8E710485921BC
:10156000016016210160882101600E48416841F444
:10157000804141600C48416841F00201416041688E
:1015800041F00401416000F041F80548002101608C
:10159000FEF766FEBC530000000000200802002099
:1015A000000100400002004000700040FEE700BF64
:1015B00008B5FFF749FD0F4B18600F4B1B6903F08F
:1015C0000703022B02D00D4A52F823000A4B1B6A74
:1015D00003F00F030133B0FBF3F0094B186000F583
:1015E000F42000F59070074BA3FB0030800C064BF5
:1015F000186008BD04000020000200400C0000201C
:101600000800002083DE1B4300000020174AD2F8A8
:10161000883043F47003C2F88830154AD36C23F045
:101620000F0343F00803D364124BD3F8982042F41D
:101630008022C3F898209A6842F002029A600E4A0B
:10164000D2F8041101F0F731C2F80411D2F80811F0
:1016500001F0F731C2F808119A6822F002029A608C
:10166000064A136823F0F0031360704700ED00E0B2
:1016700000C0004000020040001004404041004013
:1016800081F0004102E000BF83F0004330B54FEA33
:1016900041044FEA430594EA050F08BF90EA020FA0
:1016A0001FBF54EA000C55EA020C7FEA645C7FEA33
:1016B000655C00F0E2804FEA5454D4EB5555B8BF56
:1016C0006D420CDD2C4480EA020281EA030382EAC7
:1016D000000083EA010180EA020281EA0303362D59
:1016E00088BF30BD11F0004F4FEA01314FF4801C2C
:1016F0004CEA113102D0404261EB410113F0004F3E
:101700004FEA03334CEA133302D0524263EB4303F4
:1017100094EA050F00F0A780A4F10104D5F1200E92
:101720000DDB02FA0EFC22FA05F2801841F10001ED
:1017300003FA0EF2801843FA05F359410EE0A5F1C1
:1017400020050EF1200E012A03FA0EFC28BF4CF0F2
:10175000020C43FA05F3C01851EBE37101F00045A8
:1017600007D54FF0000EDCF1000C7EEB00006EEBB5
:101770000101B1F5801F1BD3B1F5001F0CD349083F
:101780005FEA30004FEA3C0C04F101044FEA445296
:1017900012F5800F80F09A80BCF1004F08BF5FEA1D
:1017A000500C50F1000041EB045141EA050130BDFD
:1017B0005FEA4C0C404141EB010111F4801FA4F1A0
:1017C0000104E9D191F0000F04BF01460020B1FAF5
:1017D00081F308BF2033A3F10B03B3F120020CDA2D
:1017E0000C3208DD02F1140CC2F10C0201FA0CF00B
:1017F00021FA02F10CE002F11402D8BFC2F1200C70
:1018000001FA02F120FA0CFCDCBF41EA0C01904025
:10181000E41AA2BF01EB0451294330BD6FEA04046E
:101820001F3C1CDA0C340EDC04F11404C4F1200259
:1018300020FA04F001FA02F340EA030021FA04F36B
:1018400045EA030130BDC4F10C04C4F1200220FAC2
:1018500002F001FA04F340EA0300294630BD21FA00
:1018600004F0294630BD94F0000F83F4801306BFC6
:1018700081F480110134013D4EE77FEA645C18BFBA
:101880007FEA655C29D094EA050F08BF90EA020F51
:1018900005D054EA000C04BF1946104630BD91EA49
:1018A000030F1EBF0021002030BD5FEA545C05D14C
:1018B0004000494128BF41F0004130BD14F580048B
:1018C0003CBF01F5801130BD01F0004545F0FE41FF
:1018D00041F470014FF0000030BD7FEA645C1ABF34
:1018E000194610467FEA655C1CBF0B46024650EA6B
:1018F000013406BF52EA033591EA030F41F4002197
:1019000030BD00BF90F0000F04BF0021704730B51C
:101910004FF4806404F132044FF000054FF00001F1
:1019200050E700BF90F0000F04BF0021704730B5B2
:101930004FF4806404F1320410F0004548BF404287
:101940004FF000013EE700BF42004FEAE2014FEADC
:1019500031014FEA02701FBF12F07F4393F07F4FB7
:1019600081F06051704792F0000F14BF93F07F4FE9
:10197000704730B54FF4607401F0004521F000412C
:1019800020E700BF50EA010208BF704730B54FF0B2
:1019900000050AE050EA010208BF704730B511F0B7
:1019A000004502D5404261EB41014FF4806404F1EF
:1019B00032045FEA915C3FF4DCAE4FF003025FEA71
:1019C000DC0C18BF03325FEADC0C18BF033202EBF9
:1019D000DC02C2F1200300FA03FC20FA02F001FA53
:1019E00003FE40EA0E0021FA02F11444C1E600BFF2
:1019F00070B54FF0FF0C4CF4E06C1CEA11541DBFA5
:101A00001CEA135594EA0C0F95EA0C0F00F0DEF86F
:101A10002C4481EA030621EA4C5123EA4C5350EA54
:101A2000013518BF52EA033541F4801143F48013A5
:101A300038D0A0FB02CE4FF00005E1FB02E506F036
:101A40000042E0FB03E54FF00006E1FB03569CF08B
:101A5000000F18BF4EF0010EA4F1FF04B6F5007F91
:101A600064F5407404D25FEA4E0E6D4146EB060603
:101A700042EAC62141EA55514FEAC52040EA5E508C
:101A80004FEACE2EB4F1FD0C88BFBCF5E06F1ED836
:101A9000BEF1004F08BF5FEA500E50F1000041EB6D
:101AA000045170BD06F0004646EA010140EA02001A
:101AB00081EA0301B4EB5C04C2BFD4EB0C0541EA3C
:101AC000045170BD41F480114FF0000E013C00F351
:101AD000AB8014F1360FDEBF002001F0004170BD75
:101AE000C4F10004203C35DA0C341BDC04F114048E
:101AF000C4F1200500FA05F320FA04F001FA05F21A
:101B000040EA020001F0004221F0004110EBD370E6
:101B100021FA04F642EB06015EEA430E08BF20EA12
:101B2000D37070BDC4F10C04C4F1200500FA04F3B5
:101B300020FA05F001FA04F240EA020001F0004147
:101B400010EBD37041F100015EEA430E08BF20EABA
:101B5000D37070BDC4F1200500FA05F24EEA020E02
:101B600020FA04F301FA05F243EA020321FA04F031
:101B700001F0004121FA04F220EA020000EBD370E8
:101B80005EEA430E08BF20EAD37070BD94F0000FE8
:101B90000FD101F00046400041EB010111F4801F1C
:101BA00008BF013CF7D041EA060195F0000F18BFCD
:101BB000704703F00046520043EB030313F4801F09
:101BC00008BF013DF7D043EA0603704794EA0C0FC3
:101BD0000CEA135518BF95EA0C0F0CD050EA4106D9
:101BE00018BF52EA4306D1D181EA030101F0004156
:101BF0004FF0000070BD50EA410606BF104619467E
:101C000052EA430619D094EA0C0F02D150EA013689
:101C100013D195EA0C0F05D152EA03361CBF1046CA
:101C200019460AD181EA030101F0004141F0FE4169
:101C300041F470014FF0000070BD41F0FE4141F4ED
:101C4000780170BD70B54FF0FF0C4CF4E06C1CEAED
:101C500011541DBF1CEA135594EA0C0F95EA0C0FA2
:101C600000F0A7F8A4EB050481EA030E52EA03355D
:101C70004FEA013100F088804FEA03334FF080557E
:101C800045EA131343EA12634FEA022245EA1115AB
:101C900045EA10654FEA00260EF000419D4208BF5C
:101CA000964244F1FD0404F5407402D25B084FEA09
:101CB0003202B61A65EB03055B084FEA32024FF4B5
:101CC00080104FF4002CB6EB020E75EB030E22BF12
:101CD000B61A754640EA0C005B084FEA3202B6EBD2
:101CE000020E75EB030E22BFB61A754640EA5C0081
:101CF0005B084FEA3202B6EB020E75EB030E22BF11
:101D0000B61A754640EA9C005B084FEA3202B6EB11
:101D1000020E75EB030E22BFB61A754640EADC00D0
:101D200055EA060E18D04FEA051545EA16754FEA32
:101D300006164FEAC30343EA52734FEAC2025FEA50
:101D40001C1CC0D111F4801F0BD141EA00014FF0DF
:101D500000004FF0004CB6E711F4801F04BF0143B0
:101D60000020B4F1FD0C88BFBCF5E06F3FF6AFAECC
:101D7000B5EB030C04BFB6EB020C5FEA500C50F15C
:101D8000000041EB045170BD0EF0004E4EEA1131DF
:101D900014EB5C04C2BFD4EB0C0541EA045170BDE6
:101DA00041F480114FF0000E013C90E645EA060E2A
:101DB0008DE60CEA135594EA0C0F08BF95EA0C0F58
:101DC0003FF43BAF94EA0C0F0AD150EA01347FF4A0
:101DD00034AF95EA0C0F7FF425AF104619462CE777
:101DE00095EA0C0F06D152EA03353FF4FDAE1046DA
:101DF000194622E750EA410618BF52EA43067FF42B
:101E0000C5AE50EA41047FF40DAF52EA43057FF4BA
:101E1000EBAE12E74FEA4102B2F1E04324BFB3F563
:101E2000001CDCF1FE5C0DD901F0004C4FEAC00251
:101E30004CEA5070B2F1004F40EB830008BF20F035
:101E40000100704711F0804F21D113F13872BCBFEF
:101E500001F00040704741F480114FEA5252C2F144
:101E60001802C2F1200C10FA0CF320FA02F018BF8D
:101E700040F001004FEAC1234FEAD32303FA0CFCE0
:101E800040EA0C0023FA02F34FEA4303CCE77FEA6F
:101E9000625307D150EA01331EBF4FF0FE4040F4B9
:101EA0004000704701F0004040F0FE4040F4000068
:101EB000704700BF014B1868704700BF2C0000201E
:101EC00008B5074B044613B10021AFF30080054B62
:101ED0001868836A03B19847204602F0C5FE00BF28
:101EE00000000000EC50000070B50D4E0D4CA41B1E
:101EF000A4100025A54209D10B4E0C4C02F0B6FEF1
:101F0000A41BA4100025A54205D170BD56F82530AC
:101F100098470135EEE756F8253098470135F2E746
:101F2000FC010020FC010020FC0100200002002038
:101F300010B5431E0A44914200D110BD11F8014B67
:101F400003F8014FF7E702440346934200D170477C
:101F500003F8011BF9E72DE9FF4755EC104B0D9FE6
:101F6000DDF830A0002D0E4691461946B8BF224636
:101F70002B4627F02007BBBF05F100431D46002379
:101F80002D23B8BF1446462F0B7004D0452F00D127
:101F90000136022100E0032103AB019302AB009361
:101FA0003246534645EC104B00F036FE472F804634
:101FB00002D119F0010F26D0462F08EB060911D1E6
:101FC00098F80030302B0AD1002200232046294601
:101FD00002F0CCFD18B9C6F10106CAF80060DAF8C3
:101FE00000309944002200232046294602F0BEFD1D
:101FF00038B93022039B994505D9591C03911A70B1
:10200000F8E7CDF80C90039B0E9AA3EB080340462B
:10201000136004B0BDE8F087F7B503460029B8BFE8
:10202000494203F8022BB4BF2D222B22092942700A
:1020300020DD0DF1070217460A2691FBF6F506FB97
:1020400015113031092D02F8011C02F1FF34294627
:1020500009DC3031023A04F8011CBA421C4604D3B0
:10206000201A03B0F0BD2246E7E712F8011B03F87F
:10207000011BF2E730221C46114404F8022B597070
:10208000EEE700002DE9F04F8DB00C46DDF85880EA
:1020900016461F46054601F009FD036804931846DD
:1020A00000F066FC00230A93D8F80030059007334F
:1020B00023F0070303F1080294F818A0D4F800B045
:1020C000C8F80020D3E90023C4E91223D4E9128917
:1020D00029F000430793CDF818804FF0FF32A54B4D
:1020E000DDE9060102F074FD002840F0FB814FF0AD
:1020F000FF32A04BDDE9060102F04CFD002840F064
:10210000F181002200234046494602F039FD10B11A
:102110002D2384F84330984B984ABAF1470F8CBF6F
:102120009046984603232BF00402236122604FF06F
:102130000009009733460BAA2146284600F0E2F931
:10214000013040F093804FF0FF300DB0BDE8F08FCC
:1021500061684B1C4BF480623FD10623636000230F
:1021600003930AAB029309AB009349EC108B0DF17A
:1021700023032260CDF804A061682846FFF7EBFE38
:102180000AF0DF03472B804609D1099BD81C02DBEC
:102190006268934257DDAAF1020A5FFA8AFABAF13D
:1021A000650F099934D80139524604F1500009915C
:1021B000FFF732FF0A9A8318012A8146236102DC65
:1021C0002268D10701D5013323619DF82330002B0C
:1021D000AFD02D2384F84330ABE7BAF1670F02D0BC
:1021E000BAF1470FBBD189B1002303930AAB029325
:1021F00009AB009349EC108B2260CDF804A00DF1DF
:1022000023032846FFF7A7FE8046BEE70123A5E784
:10221000BAF1660F19D1002963680CDD216113B989
:102220002268D20702D501330B442361099BA365C1
:102230004FF00009C9E713B92268D00701D502336E
:10224000F3E70123F1E74FF0670A099B0A9A9342EB
:1022500005DB22682361D107E8D50133E5E7002BD0
:10226000D4BFC3F1020301231344DEE723685A05F8
:1022700007D42369424631462846B84701302BD15E
:1022800061E7BAF1650F40F2E28000220023D4E951
:10229000120102F06BFC00283CD00123384A314681
:1022A0002846B84701303FF44EAF0A9B099A9A423C
:1022B00002DB2368D8070FD5059B049A31462846D0
:1022C000B84701303FF43FAF4FF0000804F11A095E
:1022D0000A9B013B984512DB23689B0709D54FF009
:1022E000000804F11909E3680B9A9B1A9845C0F29B
:1022F000EE80E0680B9B9842B8BF184625E70123A3
:102300004A4631462846B84701303FF41CAF08F131
:102310000108DDE7099B002B34DC0123184A314614
:102320002846B84701303FF40EAF099B23B90A9BFA
:1023300013B92368D907CFD5059B049A314628469F
:10234000B84701303FF4FFAE4FF0000904F11A0A1C
:10235000099B5B42994501DB0A9B8BE701235246AF
:1023600031462846B84701303FF4EDAE09F1010986
:10237000EEE700BFFFFFEF7FF0500000F4500000D9
:10238000005100000A9AA36D9A42A8BF1A46002A7B
:10239000914638DC04F11A034FF0000B29EAE97981
:1023A0000693D4F858A0AAEB09039B4533DB0A9B9C
:1023B000099A9A423ADB2368DA0737D40A9B0999CB
:1023C000A3EB0A02A3EB01099145A8BF9146B9F11D
:1023D000000F33DC4FF0000829EAE97904F11A0A0A
:1023E000099A0A9B9B1AA3EB09039845BFF674AFA1
:1023F0000123524631462846B84701303FF4A3AE88
:1024000008F10108ECE71346314642462846B84732
:102410000130BFD197E60123069A31462846B847D6
:1024200001303FF490AE0BF1010BBAE7059B049A23
:1024300031462846B8470130C0D184E64B4608EB08
:102440000A0231462846B8470130C3D17BE60A9AD2
:10245000012A01DCDB0737D50123424631462846F5
:10246000B84701303FF46FAE059B049A31462846C9
:10247000B84701303FF467AE00220023D4E91201CF
:1024800002F074FB58B14FF0000804F11A0A0A9BDD
:10249000013B98450DDB4B4604F15002EBE60A9BED
:1024A00008F10102013B31462846B8470130F2D11C
:1024B00049E60123524631462846B84701303FF4E9
:1024C00042AE08F10108E2E701234246EBE70123AF
:1024D0004A4631462846B84701303FF434AE08F149
:1024E000010800E742464B464046494602F070FB71
:1024F00000283FF42DAE014B014A0EE6F8500000D3
:10250000FC5000002DE9F04791461F468A680B6990
:10251000DDF820809342B8BF1346C9F8003091F827
:10252000432006460C4612B10133C9F80030236837
:10253000990642BFD9F800300233C9F80030256847
:1025400015F0060507D104F1190AE368D9F800204F
:102550009B1A9D4229DB94F843302268003318BF50
:10256000012392062ED404F1430239463046C04777
:10257000013021D02368E568D9F8002003F0060374
:10258000042B08BFAD1AA36822690CBF25EAE575C4
:1025900000259342C4BF9B1AED184FF000091A346E
:1025A0004D451BD10020BDE8F08701235246394636
:1025B0003046C047013003D14FF0FF30BDE8F0870F
:1025C0000135C2E7E1185A1C302081F8430022444B
:1025D00094F8451082F843100233C4E701232246E1
:1025E00039463046C0470130E6D009F10109D7E746
:1025F0002DE9F04317460A7E85B06E2A98460646B6
:102600000C460C9B01F1430E00F0BC801AD8632AE3
:102610002ED00AD8002A00F0C880582A00F08A80FC
:1026200004F1420584F842202AE0642A01D0692A94
:10263000F6D121681A6811F0800F23D0111D19609E
:10264000136827E0732A00F0B48008D86F2A2AD0D4
:10265000702AE5D10A6842F020020A6003E0752A78
:1026600021D0782ADCD1782284F845206E4964E0B4
:102670001A6801F14205111D1960136884F842308F
:102680000123A3E011F0400F02F104011960D7D03B
:10269000B2F90030002B03DA2D225B4284F843208C
:1026A00062490A2217E02068196810F0800F03D0F1
:1026B000081D18600B6806E010F0400F01F10400DF
:1026C0001860F7D00B8859496F2A14BF0A220822D4
:1026D000002084F843006568A560002DC0F29C804E
:1026E000206820F004002060002B3FD1002D40F036
:1026F00095807546082A0BD12368DA0708D5236927
:1027000062689A42DEBF302305F8013C05F1FF35CF
:10271000AEEB05032361CDF800803B4603AA2146BA
:102720003046FFF7EFFE013055D14FF0FF3005B0D6
:10273000BDE8F08381F845203C492268186812F012
:10274000800F00F104051D6001D0036802E055060A
:10275000FBD50388D00744BF42F0200222601BB99A
:10276000226822F0200222601022B1E77546B3FBF6
:10277000F2F002FB1033CB5C05F8013D0346002864
:10278000F5D1B7E708681A68496910F0800F04D0DE
:10279000101D18601368196007E010F0400F02F177
:1027A000040018601368F6D0198000232361754671
:1027B000B1E71A68111D1960156862680021284682
:1027C00001F0EEF908B1401B6060636823610023EB
:1027D00084F843309FE723692A4639463046C0478C
:1027E0000130A2D023689B0707D5002504F1190901
:1027F000E368039A9B1A9D4205DBE068039B9842BD
:10280000B8BF184693E701234A4639463046C047C9
:1028100001308AD00135EBE7002BA7D10B7884F883
:10282000423004F1420565E71351000002510000F7
:102830000FB40A4B13B51C6824B1A36913B9204621
:1028400001F0AAF805AB049AA1680193204601F0B3
:10285000FBFE02B0BDE8104004B070472C00002021
:1028600070B50E46054618B183690BB901F094F8AE
:10287000AB69AC6813B9284601F08EF8234B9C4233
:1028800017D16C68A3891B071DD52369DBB1013EF5
:10289000A36816F8011F013BA360E9B9002B2EDAEB
:1028A00022460A21284600F06BF8013011D00A2098
:1028B00070BD174B9C4201D1AC68E3E7154B9C42BD
:1028C00008BFEC68DEE72146284600F0ABF8002898
:1028D000DDD04FF0FF3070BD002B04DAA2699342C7
:1028E00006DB0A2904D023685A1C22601970CFE73E
:1028F0002246284600F044F80130C9D1E9E72368B0
:102900000A205A1C2260187070BD00BF545100008C
:102910007451000034510000024B01461868FFF763
:102920009FBF00BF2C0000200EB400B59CB04FF438
:1029300002711DABADF81410029006906FF00041CB
:102940000A48049107914FF6FF7153F8042BADF834
:1029500016100068019302A901F058FD029B0022A5
:102960001A701CB05DF804EB03B070472C00002017
:10297000034613F8012B002AFBD1181A01387047BF
:10298000F8B50E461446054618B183690BB901F037
:1029900003F8214B9C422AD16C68A369A360A389E8
:1029A0001A072ED5236963B323692068C01A6369A7
:1029B000F6B29842374604DB2146284600F082FFF3
:1029C00028BBA368013BA36023685A1C22601E70C9
:1029D00063690130984204D0A389DB0719D50A2E18
:1029E00017D12146284600F06DFF90B10FE00B4B48
:1029F0009C4201D1AC68D0E7094B9C4208BFEC680F
:102A0000CBE72146284600F00DF80028CCD04FF047
:102A1000FF373846F8BD00BF545100007451000024
:102A200034510000324B70B51D6806460C4625B186
:102A3000AB6913B9284600F0AFFF2E4B9C420FD173
:102A40006C68B4F90C309AB215072CD4D00611D4A6
:102A50000922326043F04003A3814FF0FF3070BD84
:102A6000254B9C4201D1AC68EBE7244B9C4208BF4C
:102A7000EC68E6E7510712D5616B41B104F14403FC
:102A8000994202D0304601F0B9FB00236363A38969
:102A900023F02403A3810023636023692360A389B7
:102AA00043F00803A38123694BB9A38903F420737E
:102AB000B3F5007F03D02146304601F029F8A28902
:102AC00012F001030CD00023A36063695B42A36191
:102AD000236953B9B4F90C3013F08000BAD170BD3A
:102AE000920758BF6369A360F2E70020F7E700BFD1
:102AF0002C0000205451000074510000345100009B
:102B00002DE9F74F03690C699C42804600F38280EF
:102B1000013C01F114074FEA840E00F1140657F846
:102B2000245056F8240006EB0E03013507EB0E097E
:102B30000193B0FBF5F595B34FF0000A3846B44663
:102B4000D34650F8042B93B205FB03A34FEA134A74
:102B50009BB2ABEB0303120CBCF800B005FB02A266
:102B600013FA8BF34FEA124A1FFA82FBDCF80020BB
:102B7000CBEB124202EB23429BB243EA0243814574
:102B80004FEA224B4CF8043BDBD256F80E3033B9F7
:102B9000019B043B9E421A4630D3C8F81040404681
:102BA00001F057FA002825DB013530464FF0000EC2
:102BB00057F8042BD0F800C093B2AEEB0303120C0D
:102BC00013FA8CF3C2EB1C4202EB23429BB243EAA2
:102BD0000243B9454FEA224E40F8043BE8D256F88A
:102BE000242006EB84032AB9043B9E421A460BD3E9
:102BF000C8F81040284603B0BDE8F08F1268043BC7
:102C0000002ACAD1013CC5E71268043B002AEFD173
:102C1000013CEAE70020EEE72DE9F04F57EC106B9E
:102C200097B0CDE90067466A079104460A920F9370
:102C3000209D3EB9102000F0ABFF606246608660C8
:102C40000660C660636A196851B15A684A60012318
:102C500093408B60204601F027F8636A00221A60D7
:102C6000019B002BBFBF01232B60019B23F000437E
:102C7000B2BF019300232B60DDF80480A84B33EA38
:102C800008031BD10F9A42F20F731360009B23B904
:102C9000C8F31300002800F07885219B53B9A14B9D
:102CA00021E0A14B02930833219A1360029817B0D8
:102CB000BDE8F08F9B4B02930333F5E7DDE9006736
:102CC000002200233046394601F050FF814660B1B2
:102CD0000F9A01231360219B002B00F05385934B27
:102CE000219A1360013B0293E0E714AA15A947EC6F
:102CF000106B204601F025FAC8F30A558246002DD4
:102D00007ED0C7F3130343F07F51304641F44011A6
:102D1000A5F2FF35CDF848900022854BFEF7B4FCB4
:102D200079A3D3E90023FEF763FE79A3D3E9002357
:102D3000FEF7ACFC064628460F46FEF7F3FD76A3E9
:102D4000D3E90023FEF754FE02460B4630463946CF
:102D5000FEF79CFC06460F4601F050FF002283461A
:102D600000233046394601F00BFF58B15846FEF7B4
:102D7000D9FD02460B463046394601F0F7FE08B948
:102D80000BF1FF3BBBF1160F59D86A4901EBCB01A0
:102D9000DDE90023D1E9000101F010FF002850D047
:102DA0000BF1FF3B00230E93149B5D1B6B1E0693E0
:102DB00045BFC5F101030593002300234CBF0693D3
:102DC0000593BBF1000F3EDB069BCDF82CB05B44B6
:102DD000069300230893079B092B00F2AF80052B75
:102DE000C4BF043B0793079BA3F10203CCBF00269B
:102DF0000126032B00F2AE80DFE803F082842F77F8
:102E0000159B149D1D4405F23243202B11DD009AC1
:102E100005F21240C3F1400322FA00F008FA03F36E
:102E20001843FEF76FFD0123A1F1F871013D1293E4
:102E300072E7C3F12000009B03FA00F0F1E70123E1
:102E4000B1E70E90B0E7059BA3EB0B030593CBF125
:102E50000003089300230B93BDE7012309930A9B0A
:102E6000002B7ADD04930393656A00226A600421D3
:102E700001F114029A4275D96968204600F0E0FE1B
:102E8000636A28601B680293039B0E2B00F2E580A7
:102E9000002E00F0E2809DED007BBBF1000F8DED78
:102EA0000C7B74DD234A0BF00F034FEA2B1602EB69
:102EB000C303F006D3E9008959D51F4B51EC170B1A
:102EC000D3E90823FEF7BEFECDE9000106F00F06A8
:102ED0000325194F002E4CD142464B46DDE9000137
:102EE000FEF7B0FECDE900016AE0012309930A9BD9
:102EF0005B4404930133012B0393B8BF0123B3E771
:102F00000023ABE70023F1E761436F63A787D23F5C
:102F1000B3C8608B288AC63FFB799F501344D33FC8
:102F20000000F07F2D5100002451000001510000ED
:102F30000000F83FC0510000985100000126002316
:102F4000079309964FF0FF33049303930022122353
:102F50000A9289E701230993F4E701230493039379
:102F60001A46F5E76A6801326A60490080E702257F
:102F7000AFE7F10708D540464946D7E90023FEF7F9
:102F800037FD01358046894676100837A2E700F004
:102F90009D80CBF100069F4B9F4F06F00F0203EB85
:102FA000C203D3E90023DDE90C01FEF721FDCDE9E1
:102FB0000001361100230225002E7CD1002B91D177
:102FC0000E9B002B00F08480DDE900890022934BEA
:102FD0004046494601F0D4FD002879D0039B002BE0
:102FE00076D0049B002B34DD00228D4B40464946B1
:102FF000FEF7FEFCCDE90001049E0BF1FF37013521
:103000002846FEF78FFCDDE90023FEF7F1FC0022E5
:10301000844BFEF73BFB8046A1F15079002E5AD13C
:103020000022814BDDE90001FEF72EFB42464B46B4
:10303000CDE9000101F0C2FD002840F09B8242462C
:1030400009F10043DDE9000101F09AFD002840F09C
:103050008F82DDE90C23CDE90023159B002BC0F204
:103060005081BBF10E0F00F34C816A4B03EBCB0395
:10307000D3E900890A9B002B80F2DA80039B002BA6
:1030800000F3D68040F073820022674B40464946E9
:10309000FEF7AEFCDDE9002301F086FD039E374616
:1030A000002840F04A82029B029A5D1C3123137073
:1030B0000BF1010B45E2F20705D5D7E90023FEF736
:1030C00097FC013501237610083775E7022577E76D
:1030D0005F46039E94E7029A4E4B32441392099A3C
:1030E000711E002A48D003EBC103D3E9002300205E
:1030F0004E49FEF7A7FD42464B46FEF7C5FA029D34
:1031000080468946DDE9000101F078FD0646FEF7BC
:1031100009FC02460B46DDE90001FEF7B5FA303640
:1031200005F8016B42464B46CDE9000101F028FD50
:10313000002865D1DDE9002300203849FEF7A4FA14
:1031400042464B4601F01CFD002840F0BA80139B1C
:103150009D423FF47EAF0022314B40464946FEF788
:1031600047FC0022804689462D4BDDE90001FEF731
:103170003FFCCDE90001C5E703EBC10142464B46E8
:10318000D1E90001FEF734FCCDE91001029DDDE933
:10319000000101F033FD0646FEF7C4FB303602465F
:1031A0000B46DDE90001FEF76FFA05F8016B139B92
:1031B000AB42804689464FF0000225D11B4BDDE92A
:1031C0001001FEF763FA02460B464046494601F0FD
:1031D000F5FC002875D1DDE9102300201349FEF726
:1031E00053FA02460B464046494601F0C9FC002806
:1031F0003FF42FAF15F8013C302B05F1FF3201D021
:10320000BB464DE01546F5E7054BFEF7F1FBCDE972
:103210000001BCE7C0510000985100000000F03FE1
:103220000000244000001C40000014400000E03F6B
:10323000DDE90067029D42464B4630463946FEF7BF
:1032400001FD01F0DBFC0090FEF76CFB42464B46B3
:10325000FEF7CEFB02460B4630463946FEF714FA1F
:10326000009E039F303605F8016B029EAE1BB742ED
:1032700002460B4638D1FEF709FA06460F460246CB
:103280000B464046494601F07BFCC8B932463B46F6
:103290004046494601F06AFC10B1009BDB070FD4A1
:1032A0005146204600F000FD00230F9A2B700BF1D1
:1032B00001031360219B002B3FF4F8AC1D60F5E483
:1032C0005F4615F8012C392A05F1FF3306D1029A21
:1032D0009A4207D130231370013713461A7801320E
:1032E0001A708DE71D46ECE70022A44BFEF780FB29
:1032F0000022002306460F4601F038FC00289AD031
:10330000CEE7099A002A00F0CD80079A012A00F33F
:10331000AF80129A002A00F0A78003F23343089E80
:10332000059D059A1A440592069A01211A442046E1
:10333000069200F059FD0746002D0CDD069B002B80
:1033400009DDAB42059AA8BF2B46D21A0592069A10
:10335000ED1AD31A0693089BF3B1099B002B00F0DA
:10336000A580002E10DD39463246204600F0D2FD01
:10337000524601460746204600F03FFD5146804632
:10338000204600F091FCC246089B9A1B04D051468F
:10339000204600F0BFFD82460121204600F024FDBA
:1033A0000B9B002B064640F383801A4601462046BD
:1033B00000F0B0FD079B012B06467CDD4FF00008B6
:1033C000336906EB8303186900F0C0FCC0F12000EC
:1033D000069B184410F01F0000F09680C0F12003F7
:1033E000042B40F38780059BC0F11C000344059328
:1033F000069B054403440693059B002B05DD5146BF
:103400001A46204600F0D4FD8246069B002B05DDBF
:1034100031461A46204600F0CBFD06460E9B002B97
:1034200074D03146504600F014FE00286EDA0023B6
:1034300051460A22204600F04EFC099B0BF1FF3B4F
:103440008246002B00F0A881002339460A2220463C
:1034500000F041FC049B002B074600F3C880079B4B
:10346000022B40F3C48059E0149BC3F1360356E7A6
:10347000039B5E1E089BB342BFBF089B0896F21ACF
:103480000B9BB6BF9B189E1B0B93039BB8BF0026DC
:10349000002BB9BF059B039A059D039BBCBF9D1ADA
:1034A00000233EE7089E059D099F45E7089A6EE7C1
:1034B000079B012B19DC009BBBB9019BC3F31303D2
:1034C0009BB9019B23F000431B0D1B0583B1059B9A
:1034D00001330593069B013306934FF001080B9BC4
:1034E000002B7FF46DAF012072E74FF00008F6E784
:1034F0009846F4E780D0059A1C331A440592069A40
:103500001A441D44134676E70346F4E7039B002B59
:1035100036DC079B022B33DD039B0493049B63B9CA
:1035200031460522204600F0D6FB014606465046AD
:1035300000F08FFD00283FF7B6AD0A9B029D6FEAB1
:10354000030B002303933146204600F0ADFB002F10
:103550003FF4A6AE039B2BB1BB4203D019462046D5
:1035600000F0A2FB3946204600F09EFB98E60026BC
:103570003746E2E7BB46374695E500BF00002440EA
:10358000099B93BB039B0493029D31465046FFF772
:10359000B7FA00F1300905F8019B029B049AEB1A77
:1035A0009A4200F3DC80029B012AACBF9B180133D6
:1035B00098460023039351460122204600F0F8FC70
:1035C0003146824600F045FD002800F38D8003D18E
:1035D00019F0010F40F08880454615F8013C302B6A
:1035E00005F1FF32AFD11546F7E7039B0493002D99
:1035F00005DD39462A46204600F0DAFC0746B8F1D8
:10360000000F4CD07968204600F01AFB3A6902326C
:103610000546920007F10C010C30FEF789FC0122EF
:103620002946204600F0C4FC009BDDF80880039783
:1036300003F001030746059331465046FFF760FA51
:103640000399054600F13009504600F002FD3A4664
:1036500000903146204600F016FDC368024603BBC9
:1036600001460690504600F0F4FC069A03461146C7
:103670002046069300F018FB069BA3B9079A92B95F
:10368000059A82B9B9F1390F29D0009B002B01DDD1
:1036900005F1310908F1010588F8009053E7384633
:1036A000C2E70123E3E7009A002A04DB25D1079A49
:1036B0001ABB059A0ABB002BECDD514601222046BD
:1036C00000F076FC3146824600F0C3FC002803DCA3
:1036D000E0D119F0010FDDD0B9F1390FD8D139237C
:1036E00088F8003008F10108454615F8013C392BEF
:1036F00005F1FF323BD0013340E0002B08F101051A
:1037000005DDB9F1390FEAD009F10109C4E7029BDF
:10371000049A05F8019CEB1A9342A8463FF44BAF7C
:10372000514600230A22204600F0D5FA039B039954
:10373000BB4282464FF000034FF00A02204604D1FC
:1037400000F0C9FA0390074676E700F0C4FA0023B8
:1037500003900A223946204600F0BDFAF3E75146AD
:1037600000230A22204600F0B6FA82460DE7029BAB
:10377000934205D1029A0BF1010B31231370E2E65B
:103780001546B2E7094BFFF7AEBA219B002B7FF439
:1037900088AA074BFFF7A7BA049B002B3FF7F4AEAC
:1037A000079B022B7FF7F0AEB8E600BF0051000088
:1037B000245100008A892DE9F041054610070C4686
:1037C0005AD44B68002B05DC0B6C002B02DC00206C
:1037D000BDE8F081E66A002EF9D0002312F4805291
:1037E0002F682B6033D0606DA3895A0705D56368B5
:1037F000C01A636B0BB1236CC01A00230246E66A41
:10380000216A2846B047431CA38906D129681D298F
:103810004BD82B4ACA40D60747D500226260D9044C
:103820002269226004D5421C01D12B6803B960656E
:10383000616B2F600029CAD004F14403994202D081
:10384000284600F0DBFC00206063BDE8F081216ABF
:1038500001232846B047411CC6D12B68002BC3D09A
:103860001D2B01D0162B01D12F60B0E7A38943F0A7
:103870004003A381BDE8F0810F69002FA7D0930713
:103880000E6808BF4B690F6018BF0023A6EB07083E
:103890008B60B8F1000F9ADD43463A46216AA66A6A
:1038A0002846B047002807DCA38943F04003A381E2
:1038B0004FF0FF30BDE8F0810744A8EB0008E8E7CF
:1038C0000100402038B50B6905460C46DBB118B144
:1038D00083690BB900F060F80C4B9C4209D16C680D
:1038E000B4F90C307BB121462846BDE83840FFF7DB
:1038F00061BF074B9C4201D1AC68F1E7054B9C428C
:1039000008BFEC68ECE7002038BD00BF5451000050
:103910007451000034510000014900F0A9B800BF03
:10392000C5380000002310B504460360436083607F
:1039300081814366C2810361436183611946082224
:103940005C30FEF700FB054B6362054BA362054B41
:10395000E362054B2462236310BD00BF954800005D
:10396000B7480000EF4800001349000070B54A1E38
:10397000682555430E4605F1740100F08DFC0446A0
:1039800040B1002180E842000C30A06005F16802DF
:10399000FEF7D9FA204670BD836910B5044633BBE3
:1039A0008364C3640365124B124A1B6882629842A7
:1039B00004BF0123836100F01FF86060204600F01F
:1039C0001BF8A060204600F017F80022E0600421F8
:1039D0006068FFF7A7FF01220921A068FFF7A2FF97
:1039E00002221221E068FFF79DFF0123A36110BDB1
:1039F000EC50000019390000F8B51C4B1E68B36983
:103A0000074613B93046FFF7C7FF4836B4687368F6
:103A1000013B03D5336833B13668F7E7B4F90C508E
:103A20006DB16834F4E704213846FFF79FFF30603A
:103A30000028F1D10C233B6004462046F8BD4FF628
:103A4000FF73E3810123A38165662560A56065603E
:103A500025616561A5610822294604F15C00FEF735
:103A600072FA6563A563A564E564E6E7EC500000BF
:103A70002DE9F8438046894600F14804002614B930
:103A80003046BDE8F883A5686768013F01D5246822
:103A9000F5E7AB89012B07D9B5F90E30013303D017
:103AA00029464046C84706436835EEE7044B1B6885
:103AB000186A044B002808BF1846F030704700BF52
:103AC0002C0000209000002070B50E46B1F90E10B9
:103AD000002990B014461D4607DA00232B60B389F5
:103AE0001A0610D44FF480630EE001AA00F038FFEC
:103AF0000028F2DB029A02F47042A2F500535A4207
:103B00005A412A60EEE740230020236010B070BDC8
:103B10008B8973B59D0706460C4607D504F147030C
:103B2000236023610123636102B070BD01AB6A466B
:103B3000FFF7CAFF00990546304600F0ADFB48B9D3
:103B4000B4F90C309A05EFD423F0030343F00203D9
:103B5000A381E3E70D4BB362A389206043F08003A8
:103B6000A381009B6361019B20615BB1B4F90E10DE
:103B7000304600F007FF28B1A38923F0030343F088
:103B80000103A381A3891D43A581CDE71939000055
:103B9000024B0146186800F07FBB00BF2C000020DC
:103BA00001F0FF01102A2BDB10F0070F08D010F8EE
:103BB000013B013A8B422DD010F0070F42B3F6D1F2
:103BC000F0B441EA012141EA014122F007047FF00B
:103BD00000070023F0E80256083C85EA010586EA62
:103BE000010685FA47F5A3FA87F586FA47F6A5FA9E
:103BF00087F68EB9EED1F0BC01F0FF0102F00702AA
:103C000032B110F8013B013A83EA010313B1F8D154
:103C10000020704701387047002D06BF3546033835
:103C2000073815F0010F07D1013015F4807F02BF6E
:103C3000013015F4C03F0130F0BC0138704700BFBF
:103C400070B5456A04460E463DB91020FFF7A0FF47
:103C50006062456085600560C560656AEB6883B138
:103C6000636ADB6853F82600B8B9012101FA06F54A
:103C70006A1D9200204600F0B3FA60B1466085608C
:103C80000EE021220421204600F0AAFA636AE860CF
:103C9000DB68002BE4D1002070BD026843F82620C9
:103CA00000230361C36070BD70B5446A06460D46CB
:103CB0003CB91020FFF76CFF7062446084600460C0
:103CC000C4603DB1736A6A68DB6853F822102960EA
:103CD00043F8225070BD2DE9F0410D691F4606469C
:103CE0000C4601F1140E0023DEF8000081B202FB45
:103CF00001710F0C000C02FB007089B2013301EB63
:103D000000419D424FEA10474EF8041BECDCD7B14E
:103D1000A3689D4212DB616830460131FFF790FFD6
:103D20002269023204F10C01804692000C30FEF749
:103D3000FFF821463046FFF7B7FF444604EB850302
:103D400001355F6125612046BDE8F081020C120457
:103D50000346B2B90304102013F07F4F04BF1B02C7
:103D6000083013F0704F04BF1B01043013F0404FB4
:103D700004BF9B000230002B06DB5B0003D5013043
:103D800070470020E8E720207047036813F007021F
:103D900001460BD0DA0723D4980749BF5B089B087C
:103DA00001200B605CBF0B600220704798B2A8B97D
:103DB0001B0C102013F0FF0F04BF1B0A08301A075A
:103DC00004BF1B0904309A0704BF9B080230DA07BE
:103DD00002D45B0806D001300B6070471046E9E75B
:103DE000002070472020704710B50C460121FFF7D6
:103DF00027FF01224461026110BD2DE9F74F1446EF
:103E00000A6923699A42B8BF0B468946BCBFA146DE
:103E10001C46D9F81070D4F810A0D9F80830D9F899
:103E2000041007EB0A069E42C8BF0131FFF708FFE6
:103E300000F1140505EB86082B460022434516D3F6
:103E400004F1140209F1140102EB8A0301EB870764
:103E50000193019C944213460CD8002E03DD58F8C0
:103E6000043D002B54D0066103B0BDE8F08F43F849
:103E7000042BE3E7B3F800A00432BAF1000F20D01E
:103E8000AE4689464FF0000C59F8044BBEF800B01E
:103E9000A3B20AFB03B34FEA144BDEF800406344BD
:103EA0004FEA144C0AFB0BC404EB13449BB243EAE5
:103EB00004434F454FEA144C4EF8043BE4D8CEF887
:103EC00000C032F8029CB9F1000F1FD02B68AE463B
:103ED0008C464FF0000ABCF80040BEF802B009FB67
:103EE00004B4A2449BB243EA0A434EF8043B5CF894
:103EF000043BBEF800401B0C09FB034303EB1A43D1
:103F000067454FEA134AE6D8CEF800300435A0E7FB
:103F1000013EA2E72DE9F843154612F003020646DA
:103F20000F4607D0013A214C002354F82220FFF716
:103F3000D2FE0746AD1035D0746A3CB91020FFF7A9
:103F400027FE7062446084600460C460D6F82480F8
:103F5000D8F808404CB940F271213046FFF744FFD1
:103F60000023C8F80800044603604FF00008EB0780
:103F70000AD5394622463046FFF73FFF394681468B
:103F80003046FFF791FE4F466D100BD0206838B9D0
:103F9000224621463046FFF730FF2060C0F80080FF
:103FA0000446E4E73846BDE8F88300BF88520000C5
:103FB0002DE9F0470C464FEA621A236949680AEB7B
:103FC0000309A3680746164609F10105AB4231DB38
:103FD0003846FFF735FE0022804600F114031146F3
:103FE00052452ADB20692AEAEA7A04F1140116F024
:103FF0001F0203EB8A0301EB800E22D0C2F1200CDA
:1040000000200E689640304343F8040B51F8040B2F
:104010008E4520FA0CF0F4D8186008B109F10205B9
:10402000013D3846C8F810502146FFF73DFE404696
:10403000BDE8F08701315B00C8E743F82210013288
:10404000CEE7043B51F8042B43F8042F8E45F9D8F2
:10405000E6E703690A699B1A30B50CD19200143067
:1040600014318418114454F8045D51F8042D95421C
:1040700003D005D30123184630BDA042F3D3FAE79D
:104080004FF0FF33F7E72DE9F0470D46074611469D
:1040900028461446FFF7DDFF061E08D13146384694
:1040A000FFF7CEFD012303614661BDE8F087A4BFA1
:1040B00023462C4638466168A6BF1D4600260126C9
:1040C000FFF7BEFD2B69C660266905F1140904F1EE
:1040D000140202EB860709EB830800F114054FF088
:1040E000000C52F804AB59F8044B1CFA8AF1A3B245
:1040F000C91A230CC3EB1A4303EB214389B24FEADD
:10410000234CC84541EA0343964645F8043BE8D8AA
:10411000BE4505D355F8043D8BB10661BDE8F08777
:104120005EF8041B1CFA81F31A1402EB11429BB2D5
:1041300043EA02434FEA224C45F8043BE8E7013EDC
:10414000E8E72DE9F7430E46012159EC108B15469F
:10415000FFF776FDC9F30A540746C9F3130334BBCE
:104160000193B8F1000F27D002A840F8088DFFF79F
:104170000CFE0099F0B1019AC0F1200302FA03F39A
:104180000B43C2407B610192019BBB61002B14BFBA
:10419000022101213961C4B1A4F2334404443460E2
:1041A000C0F135002860384603B0BDE8F08343F421
:1041B0008013D5E77961E7E701A8FFF7E6FD019BEA
:1041C0007B61012139612030E5E707EB8103A0F233
:1041D000324030601869FFF7B9FDC0EB4110E1E7EC
:1041E00038B502FB01F4214600F056F8054618B137
:1041F00022460021FDF7A7FE284638BD38B5054602
:10420000002945D051F8043C0C1F002BB8BFE4181E
:1042100000F006FC1F4A1368104633B9636014604F
:104220002846BDE8384000F0FCBBA3420CD9216809
:104230006218934204BF1A685B68636004BF521837
:1042400022600460ECE713465A680AB1A242FAD928
:1042500019685818A0420BD12068014458188242AE
:104260001960DDD1106852685A6001441960D7E7BF
:1042700002D90C232B60D3E7206821188A4204BF9F
:1042800011685268626004BF091821605C60C7E76A
:1042900038BD00BF9809002070B5CD1C25F003057E
:1042A00008350C2D38BF0C25002D064601DBA94230
:1042B00003D90C233360002070BD00F0B1FB234A0A
:1042C0001468214691B9224C23681BB9304600F08E
:1042D000D1FA20602946304600F0CCFA431C26D1A2
:1042E0000C233360304600F09CFBE4E70B685B1B5B
:1042F0001AD40B2B0FD90B60CD50CC18304600F0E0
:1043000090FB04F10B00231D20F00700C31A1BD003
:104310005A42E25070BD8C420DBF63684B686360C7
:10432000136018BF0C46E9E70C464968CAE7C41C8D
:1043300024F00304A04205D0211A304600F09AFA76
:104340000130CDD02560D9E770BD00BF98090020AD
:104350009C0900202DE9F0478E689E4282460C465B
:104360009146984635D88A8912F4906F31D02568E5
:1043700009696F1A6569022305EB450595FBF3F59D
:1043800008F101033B449D4238BF1D46530531D51A
:104390002946FFF781FF064650B90C23CAF80030C2
:1043A000A38943F04003A3814FF0FF30BDE8F087BD
:1043B0003A462169FDF7BCFDA38923F4906343F0DD
:1043C0008003A381266165613E44ED1B2660A560E4
:1043D0004646464528BF464632464946206800F0D4
:1043E00005FBA3689B1BA36023681E442660002076
:1043F000BDE8F0872A4600F015FB06460028E1D10B
:1044000021695046FFF7FAFEC7E700002DE9F04F9B
:104410009DB0804603938B891C060D4616460FD52A
:104420000B696BB94021FFF737FF2860286128B975
:104430000C23C8F800304FF0FF30C5E040236B611B
:104440000023099320238DF8293030238DF82A305A
:104450004FF0010B37463C4614F8013B002B3CD192
:10446000B7EB060A0BD05346324629464046FFF7C3
:1044700071FF013000F0A380099B534409933B78FE
:10448000002B00F09C8000234FF0FF320493079331
:10449000059206938DF853301A93052221785048DF
:1044A000FFF77EFB671C049BD8B9D90644BF2022C6
:1044B0008DF853201A0744BF2B228DF85320227801
:1044C0002A2A16D0079A00210A20274601343B7871
:1044D000303B092B51D9C9B111E0252BC0D027465B
:1044E000B9E73F4A801A0BFA00F0184304903C46A3
:1044F000D3E7039A111D12680391002A01DB07928A
:1045000004E0524243F00203079204933B782E2BBF
:104510000ED17B782A2B07F1010132D1039B1A1DA2
:104520001B680392002BB8BF4FF0FF33023705938F
:104530002C4C397803222046FFF732FB38B1402358
:10454000001B03FA00F0049B0343049301373978FE
:1045500025488DF8281006227E1CFFF721FB002835
:1045600035D0224BFBB9039B073323F007030833F5
:104570000393099B4B4409936CE700FB0232012132
:10458000A3E70023059318460A240F4601313A7821
:10459000303A092A03D9002BCAD00590C8E704FB9A
:1045A00000200123F1E703AB00932A46104B04A936
:1045B0004046FDF767FDB0F1FF3F8146D9D1AB8999
:1045C0005B063FF538AF09981DB0BDE8F08F03AB2F
:1045D00000932A46064B04A94046FEF709F8EAE78D
:1045E000945200009A5200009E5200008520000064
:1045F000554300009368013B002B10B4936009DA27
:104600009469A34202DBCBB20A2B03D15DF8044BC1
:10461000FEF7B6B91368581C10601970C8B25DF87F
:10462000044B7047F8B506460F461446D518AC4201
:1046300001D1002007E03A4614F8011B3046FFF78D
:10464000D9FF431CF3D1F8BD2DE9F04F9DB00C46C6
:1046500017460393064618B183690BB9FFF79CF917
:104660007C4B9C4257D17468A38918075DD5236998
:10467000002B5AD00023099320238DF829303023B2
:104680008DF82A304FF0010BB846454615F8013B2E
:10469000002B55D1B8EB070A0BD053463A462146BA
:1046A0003046FFF7BFFF013000F0C480099B534440
:1046B000099398F80030002B00F0BC8000234FF0E5
:1046C000FF3204930793059206938DF853301A93A3
:1046D000052229786048FFF763FA05F10108049B79
:1046E000002831D1D90644BF20228DF853201A0763
:1046F00044BF2B228DF853202A782A2A2CD0079ADF
:1047000000210A20A846013598F80030303B092BDB
:104710006DD971B326E0514B9C4201D1B468A3E737
:104720004F4B9C4208BFF4689EE721463046FEF797
:1047300079F900289ED04FF0FF301DB0BDE8F08F12
:10474000252BA7D0A846A0E7434A801A0BFA00F011
:10475000184304904546BBE7039A111D1268039164
:10476000002A01DB079204E0524243F00203079261
:10477000049398F800302E2B10D198F801302A2B92
:1047800008F1010137D1039B1A1D1B680392002B0E
:10479000B8BF4FF0FF3308F102080593314D98F888
:1047A000001003222846FFF7FBF940B14023401BCD
:1047B00003FA00F0049B0343049308F1010898F8FE
:1047C000001029488DF82810062208F10107FFF78C
:1047D000E7F9002834D0254B03BB039B073323F0B4
:1047E000070308330393099B4B4409934CE700FBF1
:1047F0000232012186E70023059318460A258846E0
:10480000013198F80020303A092A03D9002BC5D08D
:104810000590C3E705FB00200123F0E703AB0093FD
:104820002246134B04A93046FDF72CFCB0F1FF3FA4
:104830008146D8D1A3895B063FF57DAF09987CE717
:1048400003AB009322460A4B04A93046FDF7D0FE85
:10485000ECE700BF54510000945200007451000076
:10486000345100009A5200009E5200008520000042
:104870002546000038B5064C00230546084623604F
:1048800000F0E4F9431C02D1236803B12B6038BD6A
:104890000C0A002010B50C46B1F90E1000F0E8F833
:1048A0000028ABBF636DA3891B1823F48053ACBFF2
:1048B0006365A38110BD2DE9F0411F468B89DB059F
:1048C00005460C46164605D502230022B1F90E1006
:1048D00000F068F8A389B4F90E1023F48053A38183
:1048E00032463B462846BDE8F04100F017B810B507
:1048F0000C46B1F90E1000F055F8431CA38915BF02
:10490000606523F4805343F48053A38118BFA381CF
:1049100010BDB1F90E1000F013B8000038B5074C07
:10492000054608461146002222601A46FCF730FD73
:10493000431C02D1236803B12B6038BD0C0A002050
:1049400038B5064C0023054608462360FCF7DCFD1D
:10495000431C02D1236803B12B6038BD0C0A002030
:1049600038B5074C00230546084611462360FCF77E
:10497000D3FD431C02D1236803B12B6038BD00BFB7
:104980000C0A002038B5064C002305460846236073
:10499000FCF7CAFD431C02D1236803B12B6038BD6C
:1049A0000C0A002038B5074C05460846114600227F
:1049B00022601A46FCF7BFFD431C02D1236803B1F5
:1049C0002B6038BD0C0A002082B001B901A942B1A8
:1049D0004BB113780B601278101C18BF012002B085
:1049E00070471046FBE76FF00100F8E7884210B50A
:1049F00001EB020303D8421E99420CD110BD98422C
:104A0000F9D28118D21AD34200D110BD13F8014D4A
:104A100001F8014DF7E711F8014B02F8014FEBE700
:104A200070477047F8B5074614460E4621B911463F
:104A3000BDE8F840FFF730BC22B9FFF7DFFB2546A1
:104A40002846F8BD00F033F884420FD92146384695
:104A5000FFF722FC05460028F2D031462246FDF73A
:104A600067FA31463846FFF7C9FBE9E73546E7E71D
:104A700038B5074C054608461146002222601A4602
:104A8000FCF7A8FC431C02D1236803B12B6038BD9E
:104A90000C0A002049B1FF2A85BF8A2303600A70EF
:104AA0004FF0FF3098BF012070470846704751F81B
:104AB000040C0028A0F10400BCBF0B58C0187047BC
:104AC0004FF0FF3C06E000BF4FF0010C02E000BFDA
:104AD0004FF0010C4DF804CD4FEA410C7FEA6C5CBD
:104AE0004FEA430C18BF7FEA6C5C1BD001B050EA60
:104AF000410C0CBF52EA430C91EA030F02BF90EA4B
:104B0000020F0020704710F1000F91EA030F58BF09
:104B1000994208BF90422CBFD8176FEAE37040F06B
:104B2000010070474FEA410C7FEA6C5C02D150EA09
:104B3000013C07D14FEA430C7FEA6C5CD6D152EAC4
:104B4000033CD3D05DF8040B704700BF8446104689
:104B500062468C461946634600E000BF01B5FFF788
:104B6000B7FF002848BF10F1000F01BD4DF808ED58
:104B7000FFF7F4FF0CBF012000205DF808FB00BF29
:104B80004DF808EDFFF7EAFF34BF012000205DF883
:104B900008FB00BF4DF808EDFFF7E0FF94BF0120D0
:104BA00000205DF808FB00BF4DF808EDFFF7CEFFD1
:104BB00094BF012000205DF808FB00BF4DF808ED10
:104BC000FFF7C4FF34BF012000205DF808FB00BFE1
:104BD0004FEA410C7FEA6C5C02D150EA013C0AD1F9
:104BE0004FEA430C7FEA6C5C02D152EA033C02D1EB
:104BF0004FF0000070474FF0010070474FEA41024C
:104C000012F5001215D211D56FF47873B3EB62521E
:104C100012D94FEAC12343F0004343EA505311F045
:104C2000004F23FA02F018BF404270474FF00000D7
:104C3000704750EA013005D111F0004008BF6FF015
:104C4000004070474FF00000704700BF044A05491C
:104C50001368002B08BF0B461844106018467047B5
:104C6000A0090020100A0020FEE700BFF8B500BF31
:104C7000F8BC08BC9E467047F8B500BFF8BC08BC3D
:104C80009E4670471B5B2575410000001B5B393158
:104C90006D0000001B5B39366D0000001B5B39376F
:104CA0006D1B5B34306D00005620627573202B3A0B
:104CB00020257325322E3266205625732009562072
:104CC000627573202D3A20257325322E32662056C8
:104CD0000A0D0000562062757320646966663A20EA
:104CE000257325322E3266205625730956206275AB
:104CF0007320746F74616C3A2025322E3266205610
:104D00000A0D00004920414320524D533A202532DC
:104D10002E32662041095620414320524D533A20FD
:104D200025322E326620560A0D0000002D3E00006E
:104D30003C2D00005020414320524D533A20253253
:104D40002E3266205709506F77657220666C6F7738
:104D50003A204443257341430A0D00001B5B39335D
:104D60006D00000058666F726D65722074656D701D
:104D70003A20257325322E316643257309496E7614
:104D800065727465722074656D703A2025732532E2
:104D90002E3166432573200A0D0000004143204355
:104DA0006F6E746163746F723A00000020436C6F21
:104DB000736564001B5B39336D50726563686172A3
:104DC00067650000204F70656E00000009444320B5
:104DD000436F6E746163746F723A0000504C4C20E4
:104DE00073796E633A2000001B5B39326D5945536D
:104DF000000000001B5B39316D4E4F00090969202E
:104E000073796E633A200000504C4C2066726571D5
:104E10003A2025322E326620485A0A0D0000000042
:104E20001B5B33306D1B5B3130356D001B5B3935DF
:104E30006D1B5B34306D00004F4E0000496E76658F
:104E4000727465723A2025732573257309095620FB
:104E50004443207365743A20257325322E32662030
:104E60005625730A0D0000004F746865723A2025BC
:104E70007325322E32662573090956204443206477
:104E8000696666207365743A20257325322E326672
:104E9000205625730A0D00002A2A2A2A2A2A2A2A9D
:104EA0002A2A2A2A2A2A2A2A2A2A2A2A2A2A2A2A62
:104EB0002A2A2A2A2A2A2A2A2A2A2A2A2A2A2A2A52
:104EC0000A0D00001B5B304A0A0D2A2A2A2A414398
:104ED000544956452052454354494649455220437A
:104EE0004F4E54524F4C4C45522056302E312A2AA8
:104EF0002A2A0A0D0000000050444D4120696E74BA
:104F00002E2066726F6D20756E6B6E6F776E2063EC
:104F1000682E21210000000050444D412074617230
:104F20006765742061626F727420696E742E21212E
:104F3000000000002050444D412074696D656F757C
:104F40007420696E742E212100000000756E6B6E56
:104F50006F776E2050444D4120696E742E212100E0
:104F600048656C6C6F20576F726C640048656C6CA0
:104F70006F20576F726C642C2064656C6179656476
:104F80002E00000054686973206973206120444D2D
:104F900041207472616E736665720A0D0000000034
:104FA000546869732069732061207365636F6E6450
:104FB0002C2062696767657220444D4120747261DC
:104FC0006E736665720A0D005468697320697320F8
:104FD0006120746869726420444D41207472616E6E
:104FE0007366657220726967687420617761790AF7
:104FF0000D0000005541525431206F7665722044F7
:105000004D41206368616E6E656C207374617274CB
:1050100065642E2E2E0A0D005741524E494E4720F0
:105020003A205541525431206A6F6220627566669B
:105030006572206F766572666C6F772121210000A2
:10504000010202040000000004000000080000004B
:105050000C00000000000000040000000C00000034
:1050600010000000496E2048617264204661756C32
:10507000742048616E646C657200000072302020FC
:105080003D20307825780A00723120203D2030788C
:1050900025780A00723220203D20307825780A00D9
:1050A000723320203D20307825780A00723132207A
:1050B0003D20307825780A006C7220203D20307821
:1050C00025780A00706320203D20307825780A007A
:1050D000707372203D20307825780A00001BB700DD
:1050E0000000000000800000001BB700300000201E
:1050F000494E4600696E66004E414E006E616E007C
:105100003000303132333435363738394142434458
:1051100045460030313233343536373839616263D1
:1051200064656600496E66696E697479004E614E09
:10513000000000000000000000000000000000006F
:10514000000000000000000000000000000000005F
:10515000000000000000000000000000000000004F
:10516000000000000000000000000000000000003F
:10517000000000000000000000000000000000002F
:10518000000000000000000000000000000000001F
:1051900000000000000000000080E03779C34143B8
:1051A000176E05B5B5B89346F5F93FE9034F384D8D
:1051B000321D30F94877825A3CBF737FDD4F157539
:1051C000000000000000F03F00000000000024404C
:1051D00000000000000059400000000000408F4027
:1051E000000000000088C34000000000006AF84092
:1051F0000000000080842E4100000000D0126341B6
:105200000000000084D797410000000065CDCD412B
:10521000000000205FA00242000000E8764837420C
:10522000000000A2941A6D42000040E59C30A242AA
:105230000000901EC4BCD64200003426F56B0C431F
:105240000080E03779C3414300A0D88557347643C6
:1052500000C84E676DC1AB43003D9160E458E14327
:10526000408CB5781DAF154450EFE2D6E41A4B449C
:1052700092D54D06CFF08044F64AE1C7022DB544E1
:10528000B49DD9794378EA44050000001900000074
:105290007D000000232D302B2000686C4C006566DB
:1052A00067454647004300504F534958002E0000C1
:1052B00020202020202020202028282828282020C6
:1052C00020202020202020202020202020202020DE
:1052D0008810101010101010101010101010101056
:1052E0000404040404040404040410101010101036
:1052F000104141414141410101010101010101010F
:105300000101010101010101010101101010101042
:1053100010424242424242020202020202020202DF
:105320000202020202020202020202101010102007
:10533000000000000000000000000000000000006D
:10534000000000000000000000000000000000005D
:10535000000000000000000000000000000000004D
:10536000000000000000000000000000000000003D
:10537000000000000000000000000000000000002D
:10538000000000000000000000000000000000001D
:10539000000000000000000000000000000000000D
:1053A00000000000000000000000000000000000FD
:0453B00000000000F9
:0853B400ACAEFF7F0100000018
:1053BC000C000000001BB700001BB700001BB7005F
:1053CC00008000000000000010270000000000001A
:1053DC000000000000000000001BB700300000209F
:1053EC0000000000545100007451000034510000C2
:1053FC0000000000000000000000000000000000A1
:10540C000000000000000000000000000000000090
:10541C000000000000000000000000000000000080
:10542C000000000000000000000000000000000070
:10543C000000000000000000000000000000000060
:10544C00430000000000000000000000000000000D
:10545C000000000000000000000000000000000040
:10546C0043000000000000000000000000000000ED
:10547C000000000000000000000000000000000020
:10548C0043000000000000000000000000000000CD
:10549C000000000000000000000000000000000000
:1054AC0043000000000000000000000000000000AD
:1054BC0000000000000000000000000000000000E0
:1054CC00430000000000000000000000000000008D
:1054DC0000000000000000000000000000000000C0
:1054EC00430000000000000000000000000000006D
:1054FC0000000000000000000000000000000000A0
:10550C00430000000000000000000000000000004C
:10551C00000000000000000000000000000000007F
:10552C00954A0000C949000000000000AF5200007D
:10553C00AD5200009952000099520000995200009F
:10554C0099520000995200009952000099520000A3
:10555C009952000099520000FFFFFFFFFFFFFFFF71
:10556C00FFFFFFFFFFFF00000100415343494900CB
:10557C00000000000000000000000000000000001F
:10558C0000000000000000000000415343494900A6
:10559C0000000000000000000000000000000000FF
:1055AC0000000000000000000000000019020000D4
:0855BC00F501000000000000F1
:04000003000015499B
:00000001FF
