:1000000000800220B90C00001D0D0000DD0A000078
:100010001D0D00001D0D00001D0D00000000000062
:100020000000000000000000000000001D0D0000A6
:100030001D0D0000000000001D0D000075030000F4
:100040001D0D00001D0D00001D0D00001D0D000008
:100050001D0D0000000000001D0D00001D0D000022
:100060001D0D00001D0D00001D0D00001D0D0000E8
:100070001D0D00001D0D00001D0D00001D0D0000D8
:100080001D0D00001D0D00001D0D00001D0D0000C8
:100090001D0D00001D0D00001D0D00001D0D0000B8
:1000A0001D0D00001D0D00001D0D00001D0D0000A8
:1000B0001D0D00001D0D00001D0D00001D0D000098
:1000C0001D0D00001D0D00001D0D00001D0D000088
:1000D0001D0D00001D0D00001D0D00001D0D000078
:1000E000D50200001D0D00001D0D00001D0D0000BB
:1000F0001D0D0000000000001D0D00001D0D000082
:100100001D0D00001D0D00001D0D00001D0D000047
:100110001D0D00001D0D00001D0D00001D0D000037
:100120001D0D00001D0D00001D0D00001D0D000027
:100130001D0D0000000000001D0D0000000000006B
:100140001D0D00001D0D00001D0D00001D0D000007
:100150001D0D0000000000001D0D00001D0D000021
:100160001D0D00001D0D00001D0D00001D0D0000E7
:100170001D0D00001D0D00001D0D00001D0D0000D7
:100180001D0D00001D0D00001D0D000000000000F1
:100190001D0D00001D0D00001D0D00001D0D0000B7
:1001A0001D0D00001D0D00001D0D000000000000D1
:1001B0001D0D00001D0D00000000000000000000EB
:1001C000000000000000000000000000000000002F
:1001D000000000001D0D00001D0D00001D0D0000A1
:1001E0001D0D00001D0D00001D0D00001D0D000067
:1001F0001D0D000010B5054C237833B9044B13B125
:100200000448AFF300800123237010BDA00000203C
:1002100000000000C42300000C4B43B10C480D4902
:1002200010B5AFF300800C48036823B910BD0A482D
:10023000036833B97047094B002BF7D0BDE8104075
:100240001847064B002BF5D0184700BF00000000F0
:10025000C4230000A400002098000020000000003B
:10026000154B002B08BF134B9D46A3F5803A002188
:100270008B460F461348144A121A00F07FFF0F4BAB
:10028000002B00D098470E4B002B00D09847002041
:10029000002104000D000D48002802D00C48AFF3E7
:1002A000008000F047FF2000290000F0DDF800F09A
:1002B0002DFF00BF000008000080022000000000A9
:1002C00000000000A0000020DC0100200000000071
:1002D0000000000000B583B0214BD3F81C3413F0AC
:1002E000020F1DD01E4BD3F8243413F4806F0ED0B0
:1002F0004FF480621A4BC3F82424684600F0F0F9EA
:10030000B8B902AB13E9030000F090F911E0154809
:1003100000F0B0FF124BD3F82424C3F8242408E0E3
:1003200013F0010F08D113F4407F14D10E4800F0F0
:10033000A1FF03B05DF804FB0C4800F09BFF084BE5
:10034000D3F8203413F0040FF3D0054BD3F8202456
:10035000C3F82024EDE7064800F08CFFE9E700BF72
:100360000080004030210000842100005021000066
:100370006C21000010B50C4CD4E90023013243F18C
:100380000003C4E9002300F0E5F84FF47A7200237B
:10039000D4E9000100F02CFD134304D1034A136893
:1003A00083F00103136010BDC0000020C04900406D
:1003B00008B54FF080435922C3F800211622C3F834
:1003C00000218822C3F80021D3F80031002BF0D09F
:1003D00002F14022B832136823F0F00313600120C9
:1003E00000F0A0F9012000F0ADF91D4800F0C0FABE
:1003F0001C4B11225A639A6842F004029A609A6870
:1004000042F480329A609A6842F400329A605A68E4
:1004100042F002025A605A6922F4E0625A615A6953
:1004200022F040725A615A6922F040625A6100F02B
:1004300077FC4FF08043DA6B22F47F02DA63DA6BE9
:1004400042F4CC02DA631A6B22F47F421A631A6B0D
:1004500042F408421A630022C3F8002108BD00BF1D
:1004600000B0710B0002004008B5FFF7A1FF2A4B56
:100470001B682A4AA2FB03239B09013BB3F1807F3F
:1004800009D2274A5360F021264B83F8231000231A
:100490009360072313604FF4E131234800F05EFBC3
:1004A0004FF4E131214800F059FB00F07FF80122C0
:1004B00007211F4800F09AFA00224FF400411D481E
:1004C00000F094FA00224FF400611B4800F08EFA0D
:1004D0001A4800F0CFFE4FF47A7000F04FF8184839
:1004E00000F0C8FE4FF47A7000F048F8154800F0AC
:1004F000B9F84FF47A7000F041F8134800F0B2F800
:10050000124800F0AFF84FF47A7000F037F8104856
:1005100000F0A8F8FEE700BF08000020D34D6210ED
:1005200010E000E000ED00E0000007400010074090
:10053000C04100408041004040410040A0210000F7
:10054000AC210000C4210000E021000008220000CE
:1005500098210000084B1968503B1A6842EA410193
:10056000A3F2AC739A6822F006029A609A6842EA93
:1005700041029A60704700BFBC4900404DF804BD7D
:10058000094BD3E9002312EB000B43F1000C584652
:100590006146054BD3E90023994208BF9042F8D247
:1005A0005DF804BB704700BFC000002010B51B4CB5
:1005B0004FF48063C4F80034D4F8883423F4FE0385
:1005C00043F4C023C4F8883440F60443C4F8A03090
:1005D000D4F8A03023F003031B041B0C43F40813CE
:1005E00043F00103C4F8A0300D4BC4F8A8300D4A05
:1005F000C4F8A4205A6842F480425A600A20FFF7E7
:10060000BDFF00220A21204600F00AFA064B4FF4F3
:1006100080725A60502283F8282310BD0080004069
:10062000001007403422000000E100E082B002AB7D
:1006300003E903000A49009BC1F8A430D1F8A030B7
:1006400023F003031B041B0CBDF8042092B2013AF3
:1006500043EA024343F00103C1F8A03002B07047FF
:100660000080004010B582B0009000F00BFE80B218
:10067000ADF80400174BD3F8A03013F0030F19D0D6
:10068000154A92F80031013303F01F0392F801215B
:10069000D2B2934215D0104C94F8002104EBC20260
:1006A00002A911E9030082E8030084F80031002068
:1006B00002B010BD02AB13E90300FFF7B7FF002043
:1006C000F6E7064800F062FD6420FFF757FF0C20B4
:1006D000EEE700BF00800040C80000205822000064
:1006E0000F4B93F80021D2B293F80131DBB29A425A
:1006F00014D010B404460A4A92F80131013303F0D1
:100700001F0392F8011102EBC10103C984E8030041
:1007100082F8013100205DF8044B704702207047D9
:10072000C8000020024A136818431060704700BFD9
:1007300000020040024A136C43F480331364704794
:1007400000020040074B084A126D30EA020204D052
:100750005A1E002B03DD1346F5E7012070470020E9
:10076000704700BF80F5200000020040F8B5064643
:100770000F46104C256D05F01005236843F0040367
:1007800023601020FFF7DEFF236943F00703236196
:10079000216A21F00F0139432162206920F007000E
:1007A0003043206100F0BCFA1DB9236823F0040334
:1007B0002360F8BD0002004082B0124B1B68019319
:1007C000114B1B6C13F4A02F19D113F4003F02D06E
:1007D0000E4802B07047C3F3813202A90A4412F8EE
:1007E000042CC3F30800811CC3F34423084800FB16
:1007F00001F003FB0223B0FBF3F0C000E9E70020A7
:10080000E7E700BF8022000000020040001BB700A5
:10081000C0C62D002DE9F84F04468A46FFF78AFF2F
:10082000E4B94C4A136843F0010313600120FFF759
:1008300089FF4FF0000E484B5344484A934263D916
:10084000002C40F0828044F21E22424B1A640420A5
:10085000FFF778FFFFF7B0FFBDE8F88F3D4A136858
:1008600043F0040313601020FFF76CFF4FF4002ED9
:10087000E1E74FEA8A0C44E04FEA4A0C41E0CB1A28
:1008800012E0013240F201239A4219D8C0F35D030D
:1008900003FB02F330491944314DA942F1D84FEA24
:1008A0009C018B42EBD95B1A9F42EAD923B14C469B
:1008B000464693461F46E4E74C46464693461F4647
:1008C00008F10108B8F1200F0CD85FB12548B0FB42
:1008D000F8F0A0F57413A3F51063234A9342EFD800
:1008E0000222CFE709F10109B9F1040F15D8A7B128
:1008F000B9F1030FF6D0B9F1040FBAD0B9F1020F74
:10090000BAD04FF00208DDE7D44600242646A346BD
:100910004FF0FF374FF00109E6E7631E4EEA8333DD
:10092000721E43EA4223ABF102021343094A1364E5
:100930000420FFF707FF04FB06F40A48B0FBF4F0BD
:1009400000FB0BF04000BDE8F88F084A014B1A6429
:100950007DE700BF00020040800F05FD8074D21AC1
:10096000C0687804001BB70000093D001E42080063
:1009700070B506461B4B1D6D05F010051A4B9842CD
:1009800000D91E46174C236843F00403236010204F
:10099000FFF7D8FE236943F007032361236A23F09E
:1009A0000F032362236813F0010F10D0314600209B
:1009B000FFF730FF044600210220FFF7D7FE25B9DC
:1009C000084A136823F004031360204670BD3146C3
:1009D0004FF40020FFF71EFF0446024B1D6D05F08B
:1009E0001005E8E70002004000B0710B00230F2B58
:1009F00015D870B402E001330F2B0ED801249C40AF
:100A00008C43F8D104685D000326AE4024EA060456
:100A100002FA05F52C430460EDE770BC704770479F
:100A2000012A0CD012B1022A0FD07047D0F8183426
:100A3000012202FA01F11943C0F8181470470901A4
:100A4000435823F0800343507047D0F838340122D4
:100A500002FA01F11943C0F83814704710B5044682
:100A60000168104800F092FB61680F4800F08EFBAF
:100A7000A1680E4800F08AFBE1680D4800F086FB93
:100A800021690C4800F082FB61690B4800F07EFB95
:100A9000A1690A4800F07AFBE169094800F076FB99
:100AA00010BD00BFBC220000C8220000D4220000FC
:100AB000E0220000EC220000F822000004230000E5
:100AC0001023000008B50446034800F0D3FB20467D
:100AD000FFF7C4FFFEE700BFA4220000074B04207D
:100AE0007146084204D0EFF309807146FFF7EABF70
:100AF000EFF30880FFF7E6BFFEE700BFC50A00007E
:100B000030B4134605E091F900500D4B1D602346AB
:100B100001315C1E8BB10A4B9B6913F4000FFAD1B3
:100B200091F900300A2BEED10D25054B1D60044BC9
:100B30009B6913F4000FFAD1E5E7104630BC70470B
:100B400000000740044B9B6913F4804FFAD1024B1D
:100B50001B680B700120704700000740F0B585B09E
:100B600004460E463C4B0FCB04AD05E90F003B4B52
:100B70009C4232D03A4B9C4237D03A4B9C423CD0BC
:100B8000394B9C4241D0394B9C4246D0384B9C4219
:100B90004BD000273D46002323630323E360A36873
:100BA00023F4702323F0F003A360012D44D096B109
:100BB00004AB03EB850555F8102C0137B2FBF7F2B7
:100BC00002EB5603B3FBF6F3023BB3F5803F3BD297
:100BD00043F04053636205B0F0BD264B5D69C5F339
:100BE00001651F6AC7F30327D5E7224B5D69C5F38B
:100BF00081651F6AC7F30337CDE71E4BDD69C5F377
:100C000001651F6B07F00F07C5E71A4BDD69C5F3D8
:100C100081651F6BC7F30317BDE7164BDD69C5F38D
:100C200001751F6BC7F30327B5E7124BDD69AD0FE5
:100C30001F6BC7F30337AEE7FFF7BEFD04AB03EB53
:100C4000850343F8100CB2E702EBC602B2FBF6F6DE
:100C50003609023E6662BEE71C2300000000074022
:100C600000100740002007400030074000400740C8
:100C7000005007400002004008B500F041FA582338
:100C800003604FF0FF3008BD08B500F039FA582373
:100C900003604FF0FF3008BD08B500F031FA58236B
:100CA0000360002008BD08B500F02AFA582303604D
:100CB0004FF0FF3008BD00001249134A134B9A420F
:100CC000BEBF51F8040B42F8040BF8E71048592155
:100CD000016016210160882101600E48416841F4DD
:100CE000804141600C48416841F002014160416827
:100CF00041F00401416000F041F805480021016025
:100D0000FFF7AEFAD0230000000000209C00002076
:100D1000000100400002004000700040FEE700BFFC
:100D200008B5FFF749FD0F4B18600F4B1B6903F027
:100D30000703022B02D00D4A52F823000A4B1B6A0C
:100D400003F00F030133B0FBF3F0094B186000F51B
:100D5000F42000F59070074BA3FB0030800C064B8D
:100D6000186008BD04000020000200400C000020B4
:100D70000800002083DE1B4300000020174AD2F841
:100D8000883043F47003C2F88830154AD36C23F0DE
:100D90000F0343F00803D364124BD3F8982042F4B6
:100DA0008022C3F898209A6842F002029A600E4AA4
:100DB000D2F8041101F0F731C2F80411D2F8081189
:100DC00001F0F731C2F808119A6822F002029A6025
:100DD000064A136823F0F0031360704700ED00E04B
:100DE00000C00040000200400010044040410040AC
:100DF00053B94AB9002908BF00281CBF4FF0FF3182
:100E00004FF0FF3000F07AB9ADF1080C6DE904CE77
:100E100000F006F8DDF804E0DDE9022304B07047D5
:100E20002DE9F0478C460D460446089E002B51D113
:100E30008A4217466DD9B2FA82FEBEF1000F0BD07E
:100E4000CEF1200C01FA0EF520FA0CFC02FA0EF796
:100E50004CEA050C00FA0EF44FEA174A250CBCFBCD
:100E6000FAF81FFA87F90AFB18CC45EA0C4508FB8B
:100E700009F3AB420AD9ED1908F1FF3280F0238162
:100E8000AB4240F22081A8F102083D44ED1AA4B221
:100E9000B5FBFAF00AFB105544EA054400FB09F9DA
:100EA000A14509D9E41900F1FF3380F00A81A14579
:100EB00040F2078102383C44A4EB090440EA0840B0
:100EC0000021002E61D024FA0EF4002334607360F8
:100ED000BDE8F0878B4207D9002E54D0002186E868
:100EE00021000846BDE8F087B3FA83F1002940F0FD
:100EF0008E80AB4202D3824200F2FA80841A65EB04
:100F000003050120AC46002E3FD086E81010BDE856
:100F1000F08712B90127B7FBF2F7B7FA87FEBEF1E7
:100F2000000F34D1EB1B3A0C1FFA87FC0121B3FBF5
:100F3000F2F8250C02FB183345EA03450CFB08F3D5
:100F4000AB4207D9ED1908F1FF3002D2AB4200F2F3
:100F5000D1808046ED1AA3B2B5FBF2F002FB10552A
:100F600043EA05440CFB00FCA44507D9E41900F151
:100F7000FF3302D2A44500F2B8801846A4EB0C045B
:100F800040EA08409DE731463046BDE8F087CEF1A3
:100F9000200405FA0EF307FA0EF720FA04F83A0CCB
:100FA00025FA04F448EA0308B4FBF2F14FEA1845C5
:100FB00002FB11441FFA87FC45EA044501FB0CF3D0
:100FC000AB4200FA0EF409D9ED1901F1FF3080F0BF
:100FD0008A80AB4240F2878002393D44EB1A1FFA07
:100FE00088F5B3FBF2F002FB103345EA034500FB42
:100FF0000CF3AB4207D9ED1900F1FF386FD2AB42C9
:101000006DD902383D44EB1A40EA01418FE7C1F146
:10101000200722FA07F88B4005FA01F448EA030397
:1010200020FA07FE4FEA134CFD404EEA040EB5FBD2
:10103000FCF94FEA1E440CFB19551FFA83F844EAE9
:10104000054509FB08F4AC4202FA01F200FA01FA84
:1010500008D9ED1809F1FF3043D2AC4241D9A9F1CA
:1010600002091D442D1B1FFA8EFEB5FBFCF00CFB84
:1010700010554EEA054400FB08F8A04507D9E418CE
:1010800000F1FF3529D2A04527D902381C4440EA97
:101090000940A4EB0804A0FB02894C45C6464D4616
:1010A00015D312D056B1BAEB0E0364EB050404FA63
:1010B00007F7CB401F43CC40376074600021BDE888
:1010C000F0871846F8E69046E0E6C245EAD2B8EB6B
:1010D000020E69EB03050138E4E72846D7E74046EE
:1010E00091E78146BEE7014678E702383C4445E790
:1010F000084608E7A8F102083D442BE7704700BF07
:10110000014B1868704700BF2C00002008B5074B42
:10111000044613B10021AFF30080054B1868836AC1
:1011200003B19847204600F0F5FF00BF0000000023
:101130002C23000070B50D4E0D4CA41BA4100025EF
:10114000A54209D10B4E0C4C00F0E6FFA41BA410E5
:101150000025A54205D170BD56F8253098470135C8
:10116000EEE756F8253098470135F2E79000002069
:1011700090000020900000209400002002440346CC
:10118000934200D1704703F8011BF9E70FB40A4BF3
:1011900013B51C6824B1A36913B9204600F02CFADA
:1011A00005AB049AA1680193204600F0E9FB02B068
:1011B000BDE8104004B070472C00002070B50E460A
:1011C000054618B183690BB900F016FAAB69AC6833
:1011D00013B9284600F010FA234B9C4217D16C68D3
:1011E000A3891B071DD52369DBB1013EA36816F84F
:1011F000011F013BA360E9B9002B2EDA22460A2128
:10120000284600F047F8013011D00A2070BD174B76
:101210009C4201D1AC68E3E7154B9C4208BFEC68E7
:10122000DEE72146284600F087F80028DDD04FF0A1
:10123000FF3070BD002B04DAA269934206DB0A2955
:1012400004D023685A1C22601970CFE72246284632
:1012500000F020F80130C9D1E9E723680A205A1CC0
:101260002260187070BD00BF502300007023000082
:1012700030230000024B01461868FFF79FBF00BFF4
:101280002C000020034613F8012B002AFBD1181A6A
:1012900001387047F8B50E461446054618B1836903
:1012A0000BB900F0A9F9214B9C422AD16C68A369C3
:1012B000A360A3891A072ED5236963B32369206825
:1012C000C01A6369F6B29842374604DB21462846C5
:1012D00000F028F928BBA368013BA36023685A1CCF
:1012E00022601E7063690130984204D0A389DB0735
:1012F00019D50A2E17D12146284600F013F990B1CE
:101300000FE00B4B9C4201D1AC68D0E7094B9C42EB
:1013100008BFEC68CBE72146284600F00DF800280E
:10132000CCD04FF0FF373846F8BD00BF5023000047
:101330007023000030230000324B70B51D68064654
:101340000C4625B1AB6913B9284600F055F92E4B70
:101350009C420FD16C68B4F90C309AB215072CD4AA
:10136000D00611D40922326043F04003A3814FF02C
:10137000FF3070BD254B9C4201D1AC68EBE7244B9C
:101380009C4208BFEC68E6E7510712D5616B41B19A
:1013900004F14403994202D0304600F01BFA0023C6
:1013A0006363A38923F02403A3810023636023697B
:1013B0002360A38943F00803A38123694BB9A38960
:1013C00003F42073B3F5007F03D02146304600F0CC
:1013D000C1F9A28912F001030CD00023A360636954
:1013E0005B42A361236953B9B4F90C3013F0800058
:1013F000BAD170BD920758BF6369A360F2E70020BD
:10140000F7E700BF2C0000205023000070230000ED
:10141000302300008A892DE9F041054610070C466B
:101420005AD44B68002B05DC0B6C002B02DC00202F
:10143000BDE8F081E66A002EF9D0002312F4805254
:101440002F682B6033D0606DA3895A0705D5636878
:10145000C01A636B0BB1236CC01A00230246E66A04
:10146000216A2846B047431CA38906D129681D2953
:101470004BD82B4ACA40D60747D500226260D90410
:101480002269226004D5421C01D12B6803B9606532
:10149000616B2F600029CAD004F14403994202D045
:1014A000284600F097F900206063BDE8F081216ACA
:1014B00001232846B047411CC6D12B68002BC3D05E
:1014C0001D2B01D0162B01D12F60B0E7A38943F06B
:1014D0004003A381BDE8F0810F69002FA7D09307D7
:1014E0000E6808BF4B690F6018BF0023A6EB070802
:1014F0008B60B8F1000F9ADD43463A46216AA66A2E
:101500002846B047002807DCA38943F04003A381A5
:101510004FF0FF30BDE8F0810744A8EB0008E8E792
:101520000100402038B50B6905460C46DBB118B107
:1015300083690BB900F060F80C4B9C4209D16C68D0
:10154000B4F90C307BB121462846BDE83840FFF79E
:1015500061BF074B9C4201D1AC68F1E7054B9C424F
:1015600008BFEC68ECE7002038BD00BF5023000046
:101570007023000030230000014900F0A9B800BF2B
:1015800025150000002310B5044603604360836006
:1015900081814366C28103614361836119460822E8
:1015A0005C30FFF7EBFD054B6362054BA362054B17
:1015B000E362054B2462236310BD00BFF91E0000E7
:1015C0001B1F0000531F0000771F000070B54A1E4C
:1015D000682555430E4605F1740100F049F90446AB
:1015E00040B1002180E842000C30A06005F16802A3
:1015F000FFF7C4FD204670BD836910B5044633BBB8
:101600008364C3640365124B124A1B68826298426A
:1016100004BF0123836100F01FF86060204600F0E2
:101620001BF8A060204600F017F80022E0600421BB
:101630006068FFF7A7FF01220921A068FFF7A2FF5A
:1016400002221221E068FFF79DFF0123A36110BD74
:101650002C23000079150000F8B51C4B1E68B369F7
:10166000074613B93046FFF7C7FF4836B4687368BA
:10167000013B03D5336833B13668F7E7B4F90C5052
:101680006DB16834F4E704213846FFF79FFF3060FE
:101690000028F1D10C233B6004462046F8BD4FF6EC
:1016A000FF73E3810123A38165662560A560656002
:1016B00025616561A5610822294604F15C00FFF7F8
:1016C0005DFD6563A563A564E564E6E72C23000082
:1016D0002DE9F8438046894600F14804002614B9F4
:1016E0003046BDE8F883A5686768013F01D52468E6
:1016F000F5E7AB89012B07D9B5F90E30013303D0DB
:1017000029464046C84706436835EEE770B50E46A1
:10171000B1F90E10002990B014461D4607DA0023D7
:101720002B60B3891A0610D44FF480630EE001AA2F
:1017300000F048FC0028F2DB029A02F47042A2F5A5
:1017400000535A425A412A60EEE7402300202360AA
:1017500010B070BD8B8973B59D0706460C4607D542
:1017600004F14703236023610123636102B070BD6C
:1017700001AB6A46FFF7CAFF00990546304600F004
:1017800077F848B9B4F90C309A05EFD423F0030385
:1017900043F00203A381E3E70D4BB362A38920600A
:1017A00043F08003A381009B6361019B20615BB1D7
:1017B000B4F90E10304600F017FC28B1A38923F0CD
:1017C000030343F00103A381A3891D43A581CDE752
:1017D0007915000038B50546002945D051F8043C7C
:1017E0000C1F002BB8BFE41800F072FC1F4A1368EE
:1017F000104633B9636014602846BDE8384000F0F5
:1018000068BCA3420CD921686218934204BF1A68CD
:101810005B68636004BF521822600460ECE7134603
:101820005A680AB1A242FAD919685818A0420BD1D5
:1018300020680144581882421960DDD1106852684E
:101840005A6001441960D7E702D90C232B60D3E713
:10185000206821188A4204BF11685268626004BF80
:10186000091821605C60C7E738BD00BFCC010020CB
:1018700070B5CD1C25F0030508350C2D38BF0C259F
:10188000002D064601DBA94203D90C23336000205A
:1018900070BD00F01DFC234A1468214691B9224C0A
:1018A00023681BB9304600F017FB206029463046FC
:1018B00000F012FB431C26D10C233360304600F0AD
:1018C00008FCE4E70B685B1B1AD40B2B0FD90B60E9
:1018D000CD50CC18304600F0FCFB04F10B00231D6A
:1018E00020F00700C31A1BD05A42E25070BD8C4250
:1018F0000DBF63684B686360136018BF0C46E9E76F
:101900000C464968CAE7C41C24F00304A04205D071
:10191000211A304600F0E0FA0130CDD02560D9E739
:1019200070BD00BFCC010020D00100209368013BB6
:10193000002B10B4936009DA9469A34202DBCBB2A6
:101940000A2B03D15DF8044BFFF7A4BC1368581CA5
:1019500010601970C8B25DF8044B7047F8B50646C0
:101960000F461446D518AC4201D1002007E03A4694
:1019700014F8011B3046FFF7D9FF431CF3D1F8BD23
:101980002DE9F04F9DB00C4617460393064618B15B
:1019900083690BB9FFF730FE7C4B9C4257D17468CA
:1019A000A38918075DD52369002B5AD0002309931A
:1019B00020238DF8293030238DF82A304FF0010B89
:1019C000B846454615F8013B002B55D1B8EB070A40
:1019D0000BD053463A4621463046FFF7BFFF013051
:1019E00000F0C480099B5344099398F80030002B01
:1019F00000F0BC8000234FF0FF3204930793059260
:101A000006938DF853301A9305222978604800F028
:101A10000FFB05F10108049B002831D1D90644BF12
:101A200020228DF853201A0744BF2B228DF8532013
:101A30002A782A2A2CD0079A00210A20A8460135A4
:101A400098F80030303B092B6DD971B326E0514B2B
:101A50009C4201D1B468A3E74F4B9C4208BFF46895
:101A60009EE721463046FFF767FC00289ED04FF0E6
:101A7000FF301DB0BDE8F08F252BA7D0A846A0E70A
:101A8000434A801A0BFA00F0184304904546BBE71E
:101A9000039A111D12680391002A01DB079204E0EA
:101AA000524243F002030792049398F800302E2B21
:101AB00010D198F801302A2B08F1010137D1039B8E
:101AC0001A1D1B680392002BB8BF4FF0FF3308F1BB
:101AD00002080593314D98F800100322284600F0C3
:101AE000A7FA40B14023401B03FA00F0049B0343D4
:101AF000049308F1010898F8001029488DF828107F
:101B0000062208F1010700F093FA002834D0254B93
:101B100003BB039B073323F0070308330393099B9D
:101B20004B4409934CE700FB0232012186E7002376
:101B3000059318460A258846013198F80020303A66
:101B4000092A03D9002BC5D00590C3E705FB002067
:101B50000123F0E703AB00932246134B04A9304660
:101B6000AFF30080B0F1FF3F8146D8D1A3895B0677
:101B70003FF57DAF09987CE703AB009322460A4B03
:101B800004A9304600F088F8ECE700BF50230000BD
:101B900090230000702300003023000096230000F3
:101BA0009A230000000000005D1900002DE9F047B5
:101BB00091461F468A680B69DDF820809342B8BFC2
:101BC0001346C9F8003091F8432006460C4612B17E
:101BD0000133C9F800302368990642BFD9F80030B4
:101BE0000233C9F80030256815F0060507D104F165
:101BF000190AE368D9F800209B1A9D4229DB94F862
:101C000043302268003318BF012392062ED404F11A
:101C1000430239463046C047013021D02368E56889
:101C2000D9F8002003F00603042B08BFAD1AA368FF
:101C300022690CBF25EAE57500259342C4BF9B1AB3
:101C4000ED184FF000091A344D451BD10020BDE8B6
:101C5000F0870123524639463046C047013003D150
:101C60004FF0FF30BDE8F0870135C2E7E1185A1C9C
:101C7000302081F84300224494F8451082F8431044
:101C80000233C4E70123224639463046C0470130BB
:101C9000E6D009F10109D7E72DE9F04317460A7E9E
:101CA00085B06E2A984606460C460C9B01F1430E01
:101CB00000F0BC801AD8632A2ED00AD8002A00F07F
:101CC000C880582A00F08A8004F1420584F8422036
:101CD0002AE0642A01D0692AF6D121681A6811F035
:101CE000800F23D0111D1960136827E0732A00F0BC
:101CF000B48008D86F2A2AD0702AE5D10A6842F049
:101D000020020A6003E0752A21D0782ADCD17822EB
:101D100084F845206E4964E01A6801F14205111DFE
:101D20001960136884F842300123A3E011F0400FDA
:101D300002F104011960D7D0B2F90030002B03DAA8
:101D40002D225B4284F8432062490A2217E0206872
:101D5000196810F0800F03D0081D18600B6806E0AA
:101D600010F0400F01F104001860F7D00B885949BA
:101D70006F2A14BF0A220822002084F843006568F5
:101D8000A560002DC0F29C80206820F00400206037
:101D9000002B3FD1002D40F095807546082A0BD1CD
:101DA0002368DA0708D5236962689A42DEBF3023C8
:101DB00005F8013C05F1FF35AEEB05032361CDF8D5
:101DC00000803B4603AA21463046FFF7EFFE013074
:101DD00055D14FF0FF3005B0BDE8F08381F84520C4
:101DE0003C492268186812F0800F00F104051D605C
:101DF00001D0036802E05506FBD50388D00744BF35
:101E000042F0200222601BB9226822F020022260E8
:101E10001022B1E77546B3FBF2F002FB1033CB5C46
:101E200005F8013D03460028F5D1B7E708681A68B0
:101E3000496910F0800F04D0101D186013681960F4
:101E400007E010F0400F02F1040018601368F6D0AC
:101E50001980002323617546B1E71A68111D1960C6
:101E6000156862680021284600F0E2F808B1401BBE
:101E7000606063682361002384F843309FE723692F
:101E80002A4639463046C0470130A2D023689B0716
:101E900007D5002504F11909E368039A9B1A9D42AE
:101EA00005DBE068039B9842B8BF184693E701231F
:101EB0004A4639463046C04701308AD00135EBE703
:101EC000002BA7D10B7884F8423004F1420565E776
:101ED000B2230000A123000038B5064C00230546BC
:101EE0000846236000F008F9431C02D1236803B1BF
:101EF0002B6038BDD801002010B50C46B1F90E108A
:101F000000F0E8F80028ABBF636DA3891B1823F429
:101F10008053ACBF6365A38110BD2DE9F0411F461E
:101F20008B89DB0505460C46164605D502230022A3
:101F3000B1F90E1000F068F8A389B4F90E1023F47B
:101F40008053A38132463B462846BDE8F04100F06D
:101F500017B810B50C46B1F90E1000F055F8431C37
:101F6000A38915BF606523F4805343F48053A38194
:101F700018BFA38110BDB1F90E1000F013B8000016
:101F800038B5074C054608461146002222601A461D
:101F9000FEF7B6FD431C02D1236803B12B6038BDA8
:101FA000D801002038B5064C0023054608462360BA
:101FB000FEF762FE431C02D1236803B12B6038BDDB
:101FC000D801002038B5074C0023054608461146C5
:101FD0002360FEF759FE431C02D1236803B12B6036
:101FE00038BD00BFD801002038B5064C0023054697
:101FF00008462360FEF750FE431C02D1236803B15C
:102000002B6038BDD801002038B5074C054608467E
:102010001146002222601A46FEF745FE431C02D1FB
:10202000236803B12B6038BDD801002000000000F8
:1020300001F0FF01102A2BDB10F0070F08D010F879
:10204000013B013A8B422DD010F0070F42B3F6D17D
:10205000F0B441EA012141EA014122F007047FF096
:1020600000070023F0E80256083C85EA010586EAED
:10207000010685FA47F5A3FA87F586FA47F6A5FA29
:1020800087F68EB9EED1F0BC01F0FF0102F0070235
:1020900032B110F8013B013A83EA010313B1F8D1E0
:1020A0000020704701387047002D06BF35460338C1
:1020B000073815F0010F07D1013015F4807F02BFFA
:1020C000013015F4C03F0130F0BC0138704700BF4B
:1020D0007047704738B5074C054608461146002240
:1020E00022601A46FEF72EFD431C02D1236803B17D
:1020F0002B6038BDD8010020044A05491368002B25
:1021000008BF0B461844106018467047D4010020E1
:10211000E0010020FEE700BFF8B500BFF8BC08BC36
:102120009E467047F8B500BFF8BC08BC9E46704795
:1021300050444D4120696E742E2066726F6D20757B
:102140006E6B6E6F776E2063682E21210000000099
:1021500050444D41207461726765742061626F72F2
:102160007420696E742E2121000000002050444D1F
:10217000412074696D656F757420696E742E21211C
:1021800000000000756E6B6E6F776E2050444D41FD
:1021900020696E742E2121001B5B324A0000000072
:1021A00048656C6C6F20576F726C640048656C6C8E
:1021B0006F20576F726C642C2064656C6179656464
:1021C0002E00000054686973206973206120444D1B
:1021D00041207472616E736665720A0D0000000022
:1021E000546869732069732061207365636F6E643E
:1021F0002C2062696767657220444D4120747261CA
:102200006E736665720A0D005468697320697320E5
:102210006120746869726420444D41207472616E5B
:102220007366657220726967687420617761790AE4
:102230000D0000005541525431206F7665722044E4
:102240004D41206368616E6E656C207374617274B9
:1022500065642E2E2E0A0D005741524E494E4720DE
:102260003A205541525431206A6F62206275666689
:102270006572206F766572666C6F77212121000090
:102280000102020400000000040000000800000039
:102290000C00000000000000040000000C00000022
:1022A00010000000496E2048617264204661756C20
:1022B000742048616E646C657200000072302020EA
:1022C0003D20307825780A00723120203D2030787A
:1022D00025780A00723220203D20307825780A00C7
:1022E000723320203D20307825780A007231322068
:1022F0003D20307825780A006C7220203D2030780F
:1023000025780A00706320203D20307825780A0067
:10231000707372203D20307825780A00001BB700CA
:102320000000000000800000001BB700300000200B
:10233000000000000000000000000000000000009D
:10234000000000000000000000000000000000008D
:10235000000000000000000000000000000000007D
:10236000000000000000000000000000000000006D
:10237000000000000000000000000000000000005D
:10238000000000000000000000000000000000004D
:10239000232D302B2000686C4C006566674546474E
:1023A00000303132333435363738394142434445D1
:1023B0004600303132333435363738396162636440
:0823C00065660000000000004A
:0823C80098DEFF7F0100000018
:1023D0000C000000001BB700001BB700001BB7007B
:1023E0000080000000000000102700000000000036
:1023F0000000000000000000001BB70030000020BB
:102400000000000050230000702300003023000073
:1024100000000000000000000000000000000000BC
:1024200000000000000000000000000000000000AC
:10243000000000000000000000000000000000009C
:10244000000000000000000000000000000000008C
:10245000000000000000000000000000000000007C
:0C24600019020000F5010000000000005F
:0400000300000CB934
:00000001FF
