:1000000000800220750D0000D90D0000BD0B00001E
:10001000D90D0000D90D0000D90D0000000000002E
:10002000000000000000000000000000D90D0000EA
:10003000D90D000000000000D90D0000750400007B
:10004000D90D0000D90D0000D90D0000D90D000018
:10005000D90D000000000000D90D0000D90D0000EE
:10006000D90D0000D90D0000D90D0000D90D0000F8
:10007000D90D0000D90D0000D90D0000D90D0000E8
:10008000D90D0000D90D0000D90D0000D90D0000D8
:10009000D90D0000D90D0000D90D0000D90D0000C8
:1000A000D90D0000D90D0000D90D0000D90D0000B8
:1000B000D90D0000D90D0000D90D0000D90D0000A8
:1000C000D90D0000D90D0000D90D0000D90D000098
:1000D000D90D0000D90D0000D90D0000D90D000088
:1000E000F5030000D90D0000D90D0000D90D000066
:1000F000D90D000000000000D90D0000D90D00004E
:10010000D90D0000D90D0000D90D0000D90D000057
:10011000D90D0000D90D0000D90D0000D90D000047
:10012000D90D0000D90D0000D90D0000D90D000037
:10013000D90D000000000000D90D000000000000F3
:10014000D90D0000D90D0000D90D0000D90D000017
:10015000D90D000000000000D90D0000D90D0000ED
:10016000D90D0000D90D0000D90D0000D90D0000F7
:10017000D90D0000D90D0000D90D0000D90D0000E7
:10018000D90D0000D90D0000D90D000000000000BD
:10019000D90D0000D90D0000D90D0000D90D0000C7
:1001A000D90D0000D90D0000D90D0000000000009D
:1001B000D90D0000D90D0000000000000000000073
:1001C000000000000000000000000000000000002F
:1001D00000000000D90D0000D90D0000D90D00006D
:1001E000D90D0000D90D0000D90D0000D90D000077
:1001F000D90D000010B5054C237833B9044B13B169
:100200000448AFF300800123237010BDA800002034
:1002100000000000882900000C4B43B10C480D4938
:1002200010B5AFF300800C48036823B910BD0A482D
:10023000036833B97047094B002BF7D0BDE8104075
:100240001847064B002BF5D0184700BF00000000F0
:1002500088290000AC000020A00000200000000061
:10026000154B002B08BF134B9D46A3F5803A002188
:100270008B460F461348144A121A01F068F80F4BC8
:10028000002B00D098470E4B002B00D09847002041
:10029000002104000D000D48002802D00C48AFF3E7
:1002A000008001F025F82000290000F05BF901F042
:1002B0000BF800BF000008000080022000000000D2
:1002C00000000000A800002004030020000000003F
:1002D0000000000000000000F0B5374D374889B03D
:1002E00000F04CFA6B78002B53D03549354801F0BB
:1002F000D7F8AB78002B52D03149334C3348344EC9
:1003000001F0CEF86768A068069600F033FF2F4B27
:100310000393CDE904013846029600F02BFF294AE9
:10032000CDE900012B492C4801F096F82A4800F04D
:1003300025FA6B79002B38D02149284801F0B0F814
:100340002569E06800F016FFCDE904012846029611
:1003500000F010FF214ACDE900012149214801F0B8
:100360007BF8204800F00AFA04221F491F4801F0D8
:1003700073F81E4800F002FA606800F0FBFE0CA360
:10038000D3E9002300F098FD00F048FF606009B059
:10039000F0BDEB780BB11649A8E70D49A6E72B791C
:1003A0000BB11349A9E70A49A7E73146C5E700BFE2
:1003B00052B81E85EB51E03FF002002002270000FA
:1003C00094260000D4000020C0020020CC000020B1
:1003D00000000020A02600001C010020C400002016
:1003E000CD2600005C010020FC260000DC0000207F
:1003F0009A26000013B51A4CD4F81C34980719D566
:10040000D4F8243459050DD54FF48063C4F824344E
:10041000684600F0EDF918B99DE8030000F092F984
:1004200002B010BD0F4801F00FF8D4F82434C4F81E
:100430002434F5E7DA070BD50B4801F005F8D4F8BA
:1004400020345B07ECD5D4F82034C4F82034E7E737
:1004500013F4407F14BF0548054800F0F5FFDFE7BF
:10046000008000403327000050270000692700006B
:100470007E2700000B4908B5D1E90023013243F182
:100480000003C1E9002300F0E5F8074B1A8822B900
:10049000C8221A80054A012111701A88013A1A806F
:1004A00008BD00BFA00100209E0100209C0100208B
:1004B00010B559204FF0804416218822C4F800015D
:1004C000C4F80011C4F80021D4F80031002BF5D095
:1004D000214A136823F0F0031360012000F0A6F90D
:1004E000012000F0B3F91D4800F0C2FA1C4B1122A4
:1004F0005A639A6842F004029A609A6842F4803221
:100500009A609A6842F400329A605A6842F0020295
:100510005A605A6922F4E0625A615A6922F04072C4
:100520005A615A6922F040625A6100F057FCE36B4D
:1005300023F47F03E363E36B43F4CC03E363236BB4
:1005400023F47F432363236B43F408432363002393
:10055000C4F8003110BD00BF4041004000B0710B35
:100560000002004008B5FFF7A3FF2C4B4FF47A724E
:100570001B68B3FBF2F3013BB3F1807F09D2284A39
:100580005360284BF02183F8231000239360072346
:1005900013604FF4E1312448244C00F045FB4FF444
:1005A000E131234800F040FB00F08CF801220721E4
:1005B000204800F097FA00224FF400411E4800F056
:1005C00091FA00224FF400611C4800F08BFA1C489D
:1005D00000F03AFF4FF47A7000F062F8194800F02A
:1005E00033FF4FF47A7000F05BF8174800F0C6F85C
:1005F0004FF47A7000F054F8144800F0BFF8144833
:1006000000F0BCF84FF47A7000F04AF80025237827
:10061000002BFCD02570FFF75FFEF8E710000020EC
:1006200010E000E000ED00E0000007409C01002029
:1006300000100740C0410040804100404041004060
:10064000922700009E270000B4270000CD2700005D
:10065000F52700000F4B196853F8502CA3F2FC73D8
:1006600042EA41019A6822F006029A609A6842EAD8
:1006700041029A60084B1A883AB908494FF47A72D5
:100680001A800A6882F001020A601A88013A1A8008
:10069000704700BFBC490040AC020020C049004088
:1006A000074B30B5D3E90045211845F10002084653
:1006B0001146D3E90045A94208BFA042F9D230BD96
:1006C000A001002010B51B4C1B4A4FF48063C4F8F6
:1006D0000034D4F8883423F4FE0343F4C023C4F870
:1006E000883440F60443C4F8A030D4F8A03023F096
:1006F00003031B041B0C43F4081343F00103C4F869
:10070000A0300E4BC4F8A830C4F8A4205A6842F4B4
:1007100080425A600A20FFF7C3FF00220A212046C8
:1007200000F0F6F9064B4FF480725A60502283F8BD
:10073000282310BD008000401F2800000010074043
:1007400000E100E082B002AB03E903000A49009B2C
:10075000C1F8A430D1F8A020BDF8043022F0030283
:1007600012041B04120C42F00102A3F58033134360
:10077000C1F8A03002B070470080004013B500906F
:1007800000F096FE174B80B2ADF80400D3F8A040FD
:1007900014F0030406D102AB13E90300FFF7D2FF04
:1007A000002010E0104A92F8003192F80111013354
:1007B00003F01F038B4208D10C4800F0D1FD6420E8
:1007C000FFF76EFF0C2002B010BD02A992F80041A5
:1007D00011E9030002EBC40484E8030082F800314D
:1007E000DEE700BF00800040A80100204328000091
:1007F00010B50D4B93F8001193F801219142044676
:100800000FD093F8012193F8011103EBC10103C943
:10081000013202F01F0284E8030083F80121002066
:1008200010BD022010BD00BFA8010020024A1368BD
:1008300018431060704700BF00020040024A136C6A
:1008400043F480331364704700020040054B0649AF
:100850000A6D30EA020201D101207047013BF7D155
:100860001846704781F5200000020040F8B5114C91
:10087000256D236843F004030646236010200F46CD
:10088000FFF7E4FF236943F007032361236A23F0A2
:100890000F033B432362206920F0070030432061AF
:1008A00000F09CFAEB065EBF236823F0040323608C
:1008B000F8BD00BF0002004082B001238DF8043073
:1008C00002238DF805308DF8063004238DF80730AB
:1008D0000F4B1B6C13F4A02F15D19A0315D4C3F33F
:1008E0000800821C0B4802A95043C3F381320A441A
:1008F000C3F3442312F8042C03FB0223B0FBF3F0F0
:10090000C00002B070470020FBE70348F9E700BFD2
:1009100000020040C0C62D00001BB7002DE9F04FBB
:1009200085B004460E46FFF789FF4A4B1A68002837
:100930006BD142F001021A600120FFF787FFA24647
:10094000454B464A0393F118914274D87300002531
:100950000293B3000193A8462C464FF0FF330122C7
:100960004FEA960E02213E48B0FBF1FC3D48ACF543
:100970007417A7F51067874224D8CCF35D004700B1
:10098000A3460090AEEB07099C460224039B364821
:10099000FB1883420BD8BE4534BFA7EB0E034B4672
:1009A000634504D21546884663B1A3469C46009B26
:1009B00001341F44A9EB030940F202239C42E5D114
:1009C0005C4663460131212901D0002BCBD1013295
:1009D000052A23D1A31E43EA0A0305F1FF3A1D4A63
:1009E00043EA8A3308F1FF3A43EA4A2313640420B6
:1009F000FFF72CFF640005FB08F51948B0FBF5F57F
:100A000004FB05F005B0BDE8F08F42F004021A6067
:100A10001020FFF71BFF4FF4002A91E7002BD9D0DD
:100A2000032AD4D0042A04D00299022A08BF0E4611
:100A300096E7019E94E7074B54B944F21E221A64CC
:100A40000420FFF703FF05B0BDE8F04FFFF734BF08
:100A5000064AF4E700020040800F05FD8074D21AB8
:100A6000001BB70000093D00C06878041E42080062
:100A700070B51A4C1A4E256D2368864243F0040364
:100A800028BF064623601020FFF7E0FE236943F0ED
:100A900007032361236A23F00F0323622368DB0724
:100AA00012D531460020FFF739FF05F01004054646
:100AB00000210220FFF7DAFE24B9084A136823F068
:100AC00004031360284670BD31464FF40020FFF741
:100AD00025FF246D054604F01004E9E700020040FC
:100AE00000B0710BF0B500230126032706FA03F4CA
:100AF0008C4309D104685D0007FA05FE24EA0E0460
:100B000002FA05F52C4304600133102BEED1F0BD41
:100B1000012A0CD002D3022A0FD07047D0F8182433
:100B2000012303FA01F11143C0F8181470470901B9
:100B3000435823F0800343507047D0F838240123F2
:100B400003FA01F11143C0F838147047044608B5A0
:100B5000114800F079FC2168104800F001FC616840
:100B60000F4800F0FDFBA1680E4800F0F9FBE168BA
:100B70000D4800F0F5FB21690C4800F0F1FB6169BC
:100B80000B4800F0EDFBA1690A4800F0E9FBE169C0
:100B9000094800F0E5FBFEE76A2800008028000015
:100BA0008C28000098280000A4280000B02800002D
:100BB000BC280000C8280000D4280000074B0420EF
:100BC0007146084204D0EFF309807146FFF7BEBFBB
:100BD000EFF30880FFF7BABFFEE700BF4D0B000040
:100BE0000B4B30B588180D24814201D1104630BD21
:100BF0009D692D02FCD411F9015B0A2D03D011F976
:100C0000015C1D60F0E71C609D692D02FCD4F6E7D5
:100C100000000740034B9A695204FCD41B680B7018
:100C20000120704700000740F0B53A4B05460E46DC
:100C30000FCB85B004AC04E90F00374B9D4207D1C0
:100C4000364B5F691C6AC7F30167C4F3032414E0E1
:100C5000334B9D4207D1314B5F691C6AC7F38167F3
:100C6000C4F3033409E02F4B9D4233D12B4BDF6992
:100C70001C6BC7F3016704F00F0400232B630323ED
:100C8000EB60AB6823F4702323F0F003012FAB601B
:100C900002D1FFF711FE0190D6B104AB03EB870739
:100CA000013457F8103CB3FBF4F404EB5603B3FBE8
:100CB000F6F3023BB3F5803F21BF04EBC604B4FB5F
:100CC000F6F63609023E36BF43F040536E626B6261
:100CD00005B0F0BD144B9D4207D1104BDF691C6B72
:100CE000C7F38167C4F30314C7E7104B9D4205D1D6
:100CF0000A4BDF691C6BC7F30177A6E70C4B9D42DB
:100D000004D1064BDF691C6BBF0FA9E700242746FF
:100D1000B3E700BFE02800000000074000020040E9
:100D20000010074000200740003007400040074007
:100D30000050074008B500F0C1FA582303604FF097
:100D4000FF3008BD08B500F0B9FA582303604FF032
:100D5000FF3008BD08B500F0B1FA58230360002049
:100D600008BD08B500F0AAFA582303604FF0FF3021
:100D700008BD00001249134A134B9A42BEBF51F8F6
:100D8000040B42F8040BF8E71048592101601621C2
:100D90000160882101600E48416841F48041416052
:100DA0000C48416841F002014160416841F0040192
:100DB000416000F041F8054800210160FFF750FA5A
:100DC0009429000000000020A40000200001004041
:100DD0000002004000700040FEE700BF08B5FFF7CA
:100DE0006BFD0F4B18600F4B1A691B6A02F007026C
:100DF000022A18BF0C4903F00F0303F1010318BFC7
:100E000051F82200B0FBF3F0084B186000F5F42015
:100E1000074B00F59070B0FBF3F0064B186008BD6F
:100E20000C000020000200401400002010000020F0
:100E300040420F0008000020174AD2F8883043F4DF
:100E40007003C2F88830154AD36C23F00F0343F0C7
:100E50000803D364124BD3F8982042F48022C3F8DD
:100E600098209A6842F002029A600E4AD2F8041161
:100E700001F0F731C2F80411D2F8081101F0F7318E
:100E8000C2F808119A6822F002029A60064A1368B2
:100E900023F0F0031360704700ED00E000C0004055
:100EA00000020040001004404041004081F0004139
:100EB00002E000BF83F0004330B54FEA41044FEA3F
:100EC000430594EA050F08BF90EA020F1FBF54EADA
:100ED000000C55EA020C7FEA645C7FEA655C00F076
:100EE000E2804FEA5454D4EB5555B8BF6D420CDD47
:100EF0002C4480EA020281EA030382EA000083EACA
:100F0000010180EA020281EA0303362D88BF30BD69
:100F100011F0004F4FEA01314FF4801C4CEA1131BF
:100F200002D0404261EB410113F0004F4FEA03331E
:100F30004CEA133302D0524263EB430394EA050FA9
:100F400000F0A780A4F10104D5F1200E0DDB02FA18
:100F50000EFC22FA05F2801841F1000103FA0EF2AC
:100F6000801843FA05F359410EE0A5F120050EF172
:100F7000200E012A03FA0EFC28BF4CF0020C43FAA3
:100F800005F3C01851EBE37101F0004507D54FF0B0
:100F9000000EDCF1000C7EEB00006EEB0101B1F500
:100FA000801F1BD3B1F5001F0CD349085FEA300046
:100FB0004FEA3C0C04F101044FEA445212F5800F51
:100FC00080F09A80BCF1004F08BF5FEA500C50F1EE
:100FD000000041EB045141EA050130BD5FEA4C0CD1
:100FE000404141EB010111F4801FA4F10104E9D15A
:100FF00091F0000F04BF01460020B1FA81F308BF51
:101000002033A3F10B03B3F120020CDA0C3208DD1C
:1010100002F1140CC2F10C0201FA0CF021FA02F1F7
:101020000CE002F11402D8BFC2F1200C01FA02F167
:1010300020FA0CFCDCBF41EA0C019040E41AA2BF8C
:1010400001EB0451294330BD6FEA04041F3C1CDA54
:101050000C340EDC04F11404C4F1200220FA04F074
:1010600001FA02F340EA030021FA04F345EA03011E
:1010700030BDC4F10C04C4F1200220FA02F001FAE0
:1010800004F340EA0300294630BD21FA04F0294662
:1010900030BD94F0000F83F4801306BF81F48011FB
:1010A0000134013D4EE77FEA645C18BF7FEA655C6E
:1010B00029D094EA050F08BF90EA020F05D054EA40
:1010C000000C04BF1946104630BD91EA030F1EBF45
:1010D0000021002030BD5FEA545C05D14000494149
:1010E00028BF41F0004130BD14F580043CBF01F53C
:1010F000801130BD01F0004545F0FE4141F4700122
:101100004FF0000030BD7FEA645C1ABF19461046FC
:101110007FEA655C1CBF0B46024650EA013406BFFD
:1011200052EA033591EA030F41F4002130BD00BFBC
:1011300090F0000F04BF0021704730B54FF4806479
:1011400004F132044FF000054FF0000150E700BFFA
:1011500090F0000F04BF0021704730B54FF4806459
:1011600004F1320410F0004548BF40424FF0000146
:101170003EE700BF42004FEAE2014FEA31014FEA89
:1011800002701FBF12F07F4393F07F4F81F06051D8
:10119000704792F0000F14BF93F07F4F704730B547
:1011A0004FF4607401F0004521F0004120E700BFDA
:1011B00050EA010208BF704730B54FF000050AE061
:1011C00050EA010208BF704730B511F0004502D562
:1011D000404261EB41014FF4806404F132045FEA64
:1011E000915C3FF4DCAE4FF003025FEADC0C18BF09
:1011F00003325FEADC0C18BF033202EBDC02C2F1FF
:10120000200300FA03FC20FA02F001FA03FE40EA90
:101210000E0021FA02F11444C1E600BF4FEA410278
:10122000B2F1E04324BFB3F5001CDCF1FE5C0DD944
:1012300001F0004C4FEAC0024CEA5070B2F1004F8E
:1012400040EB830008BF20F00100704711F0804F91
:1012500021D113F13872BCBF01F00040704741F456
:1012600080114FEA5252C2F11802C2F1200C10FA5A
:101270000CF320FA02F018BF40F001004FEAC1233E
:101280004FEAD32303FA0CFC40EA0C0023FA02F3E2
:101290004FEA4303CCE77FEA625307D150EA0133B8
:1012A0001EBF4FF0FE4040F44000704701F0004088
:1012B00040F0FE4040F40000704700BF014B18684A
:1012C000704700BF3400002008B5074B044613B137
:1012D0000021AFF30080054B1868836A03B198477B
:1012E000204601F0C9F900BF00000000F02800000E
:1012F00070B50D4E0D4CA41BA4100025A54209D1BC
:101300000B4E0C4C01F0BAF9A41BA4100025A54209
:1013100005D170BD56F8253098470135EEE756F8EF
:10132000253098470135F2E798000020980000200A
:10133000980000209C00002010B5431E0A449142F2
:1013400000D110BD11F8014B03F8014FF7E702443B
:101350000346934200D1704703F8011BF9E70000F0
:101360000FB40A4B13B51C6824B1A36913B9204606
:1013700000F058FA05AB049AA1680193204600F0EA
:1013800065FD02B0BDE8104004B070473400002095
:1013900070B50E46054618B183690BB900F042FAE4
:1013A000AB69AC6813B9284600F03CFA234B9C4269
:1013B00017D16C68A3891B071DD52369DBB1013EDA
:1013C000A36816F8011F013BA360E9B9002B2EDAD0
:1013D00022460A21284600F073F8013011D00A2075
:1013E00070BD174B9C4201D1AC68E3E7154B9C42A2
:1013F00008BFEC68DEE72146284600F0B3F8002875
:10140000DDD04FF0FF3070BD002B04DAA2699342AB
:1014100006DB0A2904D023685A1C22601970CFE722
:101420002246284600F04CF80130C9D1E9E723688C
:101430000A205A1C2260187070BD00BF14290000D9
:1014400034290000F4280000024B01461868FFF719
:101450009FBF00BF340000200EB400B59CB04FF415
:1014600002711DABADF81410029006906FF00041B0
:101470000A48049107914FF6FF7153F8042BADF819
:1014800016100068019302A900F0C2FB029B002223
:101490001A701CB05DF804EB03B0704734000020F4
:1014A000034611F8012B03F8012B002AF9D17047EC
:1014B000034613F8012B002AFBD1181A0138704794
:1014C000F8B50E461446054618B183690BB900F00D
:1014D000A9F9214B9C422AD16C68A369A360A38916
:1014E0001A072ED5236963B323692068C01A63697C
:1014F000F6B29842374604DB2146284600F028F928
:1015000028BBA368013BA36023685A1C22601E709D
:1015100063690130984204D0A389DB0719D50A2EEC
:1015200017D12146284600F013F990B10FE00B4B7C
:101530009C4201D1AC68D0E7094B9C4208BFEC68E3
:10154000CBE72146284600F00DF80028CCD04FF01C
:10155000FF373846F8BD00BF1429000034290000C9
:10156000F4280000324B70B51D6806460C4625B1C4
:10157000AB6913B9284600F055F92E4B9C420FD1A8
:101580006C68B4F90C309AB215072CD4D00611D47B
:101590000922326043F04003A3814FF0FF3070BD59
:1015A000254B9C4201D1AC68EBE7244B9C4208BF21
:1015B000EC68E6E7510712D5616B41B104F14403D1
:1015C000994202D0304600F01BFA00236363A389DE
:1015D00023F02403A3810023636023692360A3898C
:1015E00043F00803A38123694BB9A38903F4207353
:1015F000B3F5007F03D02146304600F0C1F9A2893F
:1016000012F001030CD00023A36063695B42A36165
:10161000236953B9B4F90C3013F08000BAD170BD0E
:10162000920758BF6369A360F2E70020F7E700BFA5
:10163000340000201429000034290000F4280000A0
:101640008A892DE9F041054610070C465AD44B68AB
:10165000002B05DC0B6C002B02DC0020BDE8F081C8
:10166000E66A002EF9D0002312F480522F682B6016
:1016700033D0606DA3895A0705D56368C01A636BC0
:101680000BB1236CC01A00230246E66A216A284681
:10169000B047431CA38906D129681D294BD82B4A82
:1016A000CA40D60747D500226260D9042269226069
:1016B00004D5421C01D12B6803B96065616B2F60B2
:1016C0000029CAD004F14403994202D0284600F010
:1016D00097F900206063BDE8F081216A0123284664
:1016E000B047411CC6D12B68002BC3D01D2B01D0A5
:1016F000162B01D12F60B0E7A38943F04003A381EB
:10170000BDE8F0810F69002FA7D093070E6808BFCE
:101710004B690F6018BF0023A6EB07088B60B8F178
:10172000000F9ADD43463A46216AA66A2846B0472A
:10173000002807DCA38943F04003A3814FF0FF306A
:10174000BDE8F0810744A8EB0008E8E7010040206D
:1017500038B50B6905460C46DBB118B183690BB986
:1017600000F060F80C4B9C4209D16C68B4F90C3065
:101770007BB121462846BDE83840FFF761BF074BE3
:101780009C4201D1AC68F1E7054B9C4208BFEC6874
:10179000ECE7002038BD00BF142900003429000008
:1017A000F4280000014900F0A9B800BF511700005B
:1017B000002310B504460360436083608181436663
:1017C000C281036143618361194608225C30FFF7DF
:1017D000BEFD054B6362054BA362054BE362054BFF
:1017E0002462236310BD00BFC5230000E72300006F
:1017F0001F2400004324000070B54A1E682555438D
:101800000E4605F1740100F049F9044640B100218B
:1018100080E842000C30A06005F16802FFF797FDF8
:10182000204670BD836910B5044633BB8364C3642E
:101830000365124B124A1B688262984204BF01235F
:10184000836100F01FF86060204600F01BF8A06084
:10185000204600F017F80022E06004216068FFF7DE
:10186000A7FF01220921A068FFF7A2FF022212218F
:10187000E068FFF79DFF0123A36110BDF028000081
:10188000A5170000F8B51C4B1E68B369074613B9CD
:101890003046FFF7C7FF4836B4687368013B03D58D
:1018A000336833B13668F7E7B4F90C506DB168347A
:1018B000F4E704213846FFF79FFF30600028F1D19C
:1018C0000C233B6004462046F8BD4FF6FF73E381CE
:1018D0000123A38165662560A5606560256165615A
:1018E000A5610822294604F15C00FFF730FD65631D
:1018F000A563A564E564E6E7F02800002DE9F84358
:101900008046894600F14804002614B93046BDE8F7
:10191000F883A5686768013F01D52468F5E7AB89BE
:10192000012B07D9B5F90E30013303D029464046C3
:10193000C84706436835EEE770B50E46B1F90E109C
:10194000002990B014461D4607DA00232B60B389A6
:101950001A0610D44FF480630EE001AA00F098FD3F
:101960000028F2DB029A02F47042A2F500535A42B8
:101970005A412A60EEE740230020236010B070BD7A
:101980008B8973B59D0706460C4607D504F14703BE
:10199000236023610123636102B070BD01AB6A461D
:1019A000FFF7CAFF00990546304600F077F848B9BE
:1019B000B4F90C309A05EFD423F0030343F002038B
:1019C000A381E3E70D4BB362A389206043F080035A
:1019D000A381009B6361019B20615BB1B4F90E1090
:1019E000304600F067FD28B1A38923F0030343F0DC
:1019F0000103A381A3891D43A581CDE7A51700009D
:101A000038B50546002945D051F8043C0C1F002B81
:101A1000B8BFE41800F0DEFD1F4A1368104633B962
:101A2000636014602846BDE8384000F0D4BDA3428E
:101A30000CD921686218934204BF1A685B6863601E
:101A400004BF521822600460ECE713465A680AB1DA
:101A5000A242FAD919685818A0420BD12068014453
:101A6000581882421960DDD1106852685A600144EA
:101A70001960D7E702D90C232B60D3E7206821181F
:101A80008A4204BF11685268626004BF091821606D
:101A90005C60C7E738BD00BFB002002070B5CD1C48
:101AA00025F0030508350C2D38BF0C25002D064602
:101AB00001DBA94203D90C233360002070BD00F084
:101AC00089FD234A1468214691B9224C23681BB929
:101AD000304600F067FC20602946304600F062FC8A
:101AE000431C26D10C233360304600F074FDE4E73C
:101AF0000B685B1B1AD40B2B0FD90B60CD50CC1885
:101B0000304600F068FD04F10B00231D20F00700B3
:101B1000C31A1BD05A42E25070BD8C420DBF63689D
:101B20004B686360136018BF0C46E9E70C464968D0
:101B3000CAE7C41C24F00304A04205D0211A304691
:101B400000F030FC0130CDD02560D9E770BD00BF7A
:101B5000B0020020B40200202DE9F0478E689E42BA
:101B600082460C469146984635D88A8912F4906F81
:101B700031D0256809696F1A6569022305EB4505AF
:101B800095FBF3F508F101033B449D4238BF1D4628
:101B9000530531D52946FFF781FF064650B90C237E
:101BA000CAF80030A38943F04003A3814FF0FF300F
:101BB000BDE8F0873A462169FFF7BEFBA38923F40D
:101BC000906343F08003A381266165613E44ED1B71
:101BD0002660A5604646464528BF464632464946E9
:101BE000206800F0DDFCA3689B1BA36023681E44F3
:101BF00026600020BDE8F0872A4600F0EDFC06468E
:101C00000028E1D121695046FFF7FAFEC7E700003E
:101C10002DE9F04F9DB0804603938B891C060D463D
:101C200016460FD50B696BB94021FFF737FF2860C7
:101C3000286128B90C23C8F800304FF0FF30C5E008
:101C400040236B610023099320238DF82930302332
:101C50008DF82A304FF0010B37463C4614F8013B13
:101C6000002B3CD1B7EB060A0BD05346324629462F
:101C70004046FFF771FF013000F0A380099B5344F9
:101C800009933B78002B00F09C8000234FF0FF323B
:101C900004930793059206938DF853301A93052207
:101CA0002178504800F02CFC671C049BD8B9D90659
:101CB00044BF20228DF853201A0744BF2B228DF8F1
:101CC000532022782A2A16D0079A00210A20274674
:101CD00001343B78303B092B51D9C9B111E0252B98
:101CE000C0D02746B9E73F4A801A0BFA00F01843E4
:101CF00004903C46D3E7039A111D12680391002A11
:101D000001DB079204E0524243F00203079204937E
:101D10003B782E2B0ED17B782A2B07F1010132D193
:101D2000039B1A1D1B680392002BB8BF4FF0FF33B3
:101D3000023705932C4C39780322204600F0E0FB53
:101D400038B14023001B03FA00F0049B03430493C3
:101D50000137397825488DF8281006227E1C00F0BE
:101D6000CFFB002835D0224BFBB9039B073323F070
:101D7000070308330393099B4B4409936CE700FB6B
:101D800002320121A3E70023059318460A240F46D7
:101D900001313A78303A092A03D9002BCAD005908C
:101DA000C8E704FB00200123F1E703AB00932A46B8
:101DB000104B04A94046AFF30080B0F1FF3F8146CD
:101DC000D9D1AB895B063FF538AF09981DB0BDE8A6
:101DD000F08F03AB00932A46064B04A9404600F05F
:101DE000C1F9EAE7542900005A2900005E290000E1
:101DF00000000000591B00009368013B002B10B449
:101E0000936009DA9469A34202DBCBB20A2B03D1B7
:101E10005DF8044BFFF754BB1368581C1060197031
:101E2000C8B25DF8044B7047F8B506460F46144635
:101E3000D518AC4201D1002007E03A4614F8011B46
:101E40003046FFF7D9FF431CF3D1F8BD2DE9F04F21
:101E50009DB00C4617460393064618B183690BB92B
:101E6000FFF7E0FC7C4B9C4257D17468A3891807AC
:101E70005DD52369002B5AD00023099320238DF8C8
:101E8000293030238DF82A304FF0010BB8464546F3
:101E900015F8013B002B55D1B8EB070A0BD0534680
:101EA0003A4621463046FFF7BFFF013000F0C480BC
:101EB000099B5344099398F80030002B00F0BC8034
:101EC00000234FF0FF3204930793059206938DF899
:101ED00053301A9305222978604800F011FB05F170
:101EE0000108049B002831D1D90644BF20228DF877
:101EF00053201A0744BF2B228DF853202A782A2A10
:101F00002CD0079A00210A20A846013598F8003005
:101F1000303B092B6DD971B326E0514B9C4201D166
:101F2000B468A3E74F4B9C4208BFF4689EE7214684
:101F30003046FFF717FB00289ED04FF0FF301DB052
:101F4000BDE8F08F252BA7D0A846A0E7434A801A0A
:101F50000BFA00F0184304904546BBE7039A111DA5
:101F600012680391002A01DB079204E0524243F019
:101F700002030792049398F800302E2B10D198F8A2
:101F800001302A2B08F1010137D1039B1A1D1B6870
:101F90000392002BB8BF4FF0FF3308F102080593FE
:101FA000314D98F800100322284600F0A9FA40B1FC
:101FB0004023401B03FA00F0049B0343049308F101
:101FC000010898F8001029488DF82810062208F119
:101FD000010700F095FA002834D0254B03BB039B82
:101FE000073323F0070308330393099B4B440993FA
:101FF0004CE700FB0232012186E7002305931846D7
:102000000A258846013198F80020303A092A03D978
:10201000002BC5D00590C3E705FB00200123F0E7A6
:1020200003AB00932246134B04A93046AFF3008064
:10203000B0F1FF3F8146D8D1A3895B063FF57DAF64
:1020400009987CE703AB009322460A4B04A930466B
:1020500000F088F8ECE700BF1429000054290000C4
:1020600034290000F42800005A2900005E290000ED
:1020700000000000291E00002DE9F04791461F4690
:102080008A680B69DDF820809342B8BF1346C9F80F
:10209000003091F8432006460C4612B10133C9F8CE
:1020A00000302368990642BFD9F800300233C9F8DE
:1020B0000030256815F0060507D104F1190AE36818
:1020C000D9F800209B1A9D4229DB94F843302268FE
:1020D000003318BF012392062ED404F1430239467F
:1020E0003046C047013021D02368E568D9F8002088
:1020F00003F00603042B08BFAD1AA36822690CBFC6
:1021000025EAE57500259342C4BF9B1AED184FF0F0
:1021100000091A344D451BD10020BDE8F08701238A
:10212000524639463046C047013003D14FF0FF30A8
:10213000BDE8F0870135C2E7E1185A1C302081F86C
:102140004300224494F8451082F843100233C4E758
:102150000123224639463046C0470130E6D009F116
:102160000109D7E72DE9F04317460A7E85B06E2AAC
:10217000984606460C460C9B01F1430E00F0BC80CD
:102180001AD8632A2ED00AD8002A00F0C880582A0C
:1021900000F08A8004F1420584F842202AE0642A93
:1021A00001D0692AF6D121681A6811F0800F23D076
:1021B000111D1960136827E0732A00F0B48008D855
:1021C0006F2A2AD0702AE5D10A6842F020020A60FC
:1021D00003E0752A21D0782ADCD1782284F84520C2
:1021E0006E4964E01A6801F14205111D1960136817
:1021F00084F842300123A3E011F0400F02F1040102
:102200001960D7D0B2F90030002B03DA2D225B42DF
:1022100084F8432062490A2217E02068196810F008
:10222000800F03D0081D18600B6806E010F0400F07
:1022300001F104001860F7D00B8859496F2A14BFC8
:102240000A220822002084F843006568A560002D5A
:10225000C0F29C80206820F004002060002B3FD159
:10226000002D40F095807546082A0BD12368DA07C7
:1022700008D5236962689A42DEBF302305F8013C25
:1022800005F1FF35AEEB05032361CDF800803B4639
:1022900003AA21463046FFF7EFFE013055D14FF03B
:1022A000FF3005B0BDE8F08381F845203C49226845
:1022B000186812F0800F00F104051D6001D003685A
:1022C00002E05506FBD50388D00744BF42F0200248
:1022D00022601BB9226822F0200222601022B1E79E
:1022E0007546B3FBF2F002FB1033CB5C05F8013D01
:1022F00003460028F5D1B7E708681A68496910F065
:10230000800F04D0101D18601368196007E010F0EA
:10231000400F02F1040018601368F6D01980002302
:1023200023617546B1E71A68111D19601568626866
:102330000021284600F0E4F808B1401B60606368A3
:102340002361002384F843309FE723692A463946F6
:102350003046C0470130A2D023689B0707D500252F
:1023600004F11909E368039A9B1A9D4205DBE068B2
:10237000039B9842B8BF184693E701234A46394663
:102380003046C04701308AD00135EBE7002BA7D19A
:102390000B7884F8423004F1420565E776290000A5
:1023A0006529000038B5064C002305460846236021
:1023B00000F054F9431C02D1236803B12B6038BDEF
:1023C0000003002010B50C46B1F90E1000F02AF9F8
:1023D0000028ABBF636DA3891B1823F48053ACBFE7
:1023E0006365A38110BD2DE9F0411F468B89DB0594
:1023F00005460C46164605D502230022B1F90E10FB
:1024000000F068F8A389B4F90E1023F48053A38177
:1024100032463B462846BDE8F04100F017B810B5FB
:102420000C46B1F90E1000F055F8431CA38915BFF6
:10243000606523F4805343F48053A38118BFA381C4
:1024400010BDB1F90E1000F013B8000038B5074CFC
:10245000054608461146002222601A46FEF7C0FBD8
:10246000431C02D1236803B12B6038BD0003002058
:1024700038B5064C0023054608462360FEF75AFC93
:10248000431C02D1236803B12B6038BD0003002038
:1024900038B5074C00230546084611462360FEF771
:1024A00051FC431C02D1236803B12B6038BD00BF2F
:1024B0000003002038B5064C00230546084623607B
:1024C000FEF748FC431C02D1236803B12B6038BDE2
:1024D0000003002038B5074C054608461146002287
:1024E00022601A46FEF73DFC431C02D1236803B16B
:1024F0002B6038BD00030020000000000000000039
:1025000001F0FF01102A2BDB10F0070F08D010F8A4
:10251000013B013A8B422DD010F0070F42B3F6D1A8
:10252000F0B441EA012141EA014122F007047FF0C1
:1025300000070023F0E80256083C85EA010586EA18
:10254000010685FA47F5A3FA87F586FA47F6A5FA54
:1025500087F68EB9EED1F0BC01F0FF0102F0070260
:1025600032B110F8013B013A83EA010313B1F8D10B
:102570000020704701387047002D06BF35460338EC
:10258000073815F0010F07D1013015F4807F02BF25
:10259000013015F4C03F0130F0BC0138704700BF76
:1025A000884210B501EB020303D8421E99420CD1B8
:1025B00010BD9842F9D28118D21AD34200D110BD71
:1025C00013F8014D01F8014DF7E711F8014B02F83E
:1025D000014FEBE770477047F8B5074614460E46C3
:1025E00021B91146BDE8F840FFF758BA22B9FFF704
:1025F00007FA25462846F8BD00F026F884420FD990
:1026000021463846FFF74AFA05460028F2D03146FF
:102610002246FEF791FE31463846FFF7F1F9E9E729
:102620003546E7E738B5074C05460846114600220F
:1026300022601A46FEF7EEFA431C02D1236803B16A
:102640002B6038BD0003002051F8040C0028A0F1D5
:102650000400BCBF0B58C01870470000044A05496D
:102660001368002B08BF0B461844106018467047CB
:10267000B802002008030020FEE700BFF8B500BF45
:10268000F8BC08BC9E467047F8B500BFF8BC08BC53
:102690009E4670471B5B39316D001B5B39366D0000
:1026A0005620627573202B3A20257325322E326610
:1026B0002056257320095620627573202D3A202557
:1026C0007325322E3266205625730A0D005620627D
:1026D000757320646966663A20257325322E32664A
:1026E0002056257309562062757320746F74616CCF
:1026F0003A2025322E326620560A0D001B5B2575C6
:1027000041001B5B304A0A0D2A2A2A2A41435449B8
:1027100056452052454354494649455220434F4E61
:1027200054524F4C4C45522056302E312A2A2A2AD8
:102730000A0D0050444D4120696E742E2066726F60
:102740006D20756E6B6E6F776E2063682E21210091
:1027500050444D41207461726765742061626F72EC
:102760007420696E742E2121002050444D41207444
:10277000696D656F757420696E742E212100756E08
:102780006B6E6F776E2050444D4120696E742E2120
:10279000210048656C6C6F20576F726C640048654F
:1027A0006C6C6F20576F726C642C2064656C61795F
:1027B00065642E0054686973206973206120444D5C
:1027C00041207472616E736665720A0D0054686907
:1027D000732069732061207365636F6E642C2062BF
:1027E000696767657220444D41207472616E73663B
:1027F00065720A0D00546869732069732061207442
:102800006869726420444D41207472616E7366651C
:102810007220726967687420617761790A0D0055CA
:1028200041525431206F76657220444D41206368D7
:10283000616E6E656C20737461727465642E2E2EE9
:102840000A0D005741524E494E47203A20554152F9
:102850005431206A6F6220627566666572206F76F9
:102860006572666C6F7721212100496E2048617284
:1028700064204661756C742048616E646C657200FA
:10288000723020203D20307825780A0072312020D7
:102890003D20307825780A00723220203D203078A3
:1028A00025780A00723320203D20307825780A00F0
:1028B000723132203D20307825780A006C72202059
:1028C0003D20307825780A00706320203D20307844
:1028D00025780A00707372203D20307825780A0030
:1028E000001BB7000000000000800000001BB700C4
:1028F0003800002000000000000000000000000080
:1029000000000000000000000000000000000000C7
:1029100000000000000000000000000000000000B7
:1029200000000000000000000000000000000000A7
:102930000000000000000000000000000000000097
:102940000000000000000000000000000000000087
:1029500000000000232D302B2000686C4C006566C1
:1029600067454647003031323334353637383941E0
:1029700042434445460030313233343536373839F6
:0C298000616263646566000000000000F6
:08298C00D4D8FF7F0100000018
:102994001B5B39376D0000000C000000001BB70002
:1029A400001BB700001BB7000080000000000000FF
:1029B40010270000000000000000000000000000DC
:1029C400001BB7003800002000000000142900009C
:1029D40034290000F428000000000000000000007A
:1029E40000000000000000000000000000000000E3
:1029F40000000000000000000000000000000000D3
:102A040000000000000000000000000000000000C2
:102A140000000000000000000000000000000000B2
:102A2400000000000000000019020000F501000091
:042A3400000000009E
:0400000300000D7577
:00000001FF
